{
  "contractName": "CrowdfundingCampaignMilestoneSystem",
  "abi": [
    {
      "inputs": [
        {
          "internalType": "address",
          "name": "_campaign_contract",
          "type": "address"
        }
      ],
      "stateMutability": "nonpayable",
      "type": "constructor"
    },
    {
      "anonymous": false,
      "inputs": [
        {
          "indexed": false,
          "internalType": "uint256",
          "name": "_amount",
          "type": "uint256"
        },
        {
          "indexed": false,
          "internalType": "uint256",
          "name": "_payed",
          "type": "uint256"
        }
      ],
      "name": "milestone_event",
      "type": "event"
    },
    {
      "anonymous": false,
      "inputs": [
        {
          "indexed": false,
          "internalType": "address",
          "name": "_organizer",
          "type": "address"
        },
        {
          "indexed": false,
          "internalType": "uint256",
          "name": "_refund",
          "type": "uint256"
        }
      ],
      "name": "refund_event",
      "type": "event"
    },
    {
      "inputs": [],
      "name": "campaign_contract",
      "outputs": [
        {
          "internalType": "address",
          "name": "",
          "type": "address"
        }
      ],
      "stateMutability": "view",
      "type": "function"
    },
    {
      "inputs": [],
      "name": "last_milestone",
      "outputs": [
        {
          "internalType": "uint256",
          "name": "",
          "type": "uint256"
        }
      ],
      "stateMutability": "view",
      "type": "function"
    },
    {
      "inputs": [
        {
          "internalType": "uint256",
          "name": "",
          "type": "uint256"
        }
      ],
      "name": "milestones",
      "outputs": [
        {
          "internalType": "uint256",
          "name": "",
          "type": "uint256"
        }
      ],
      "stateMutability": "view",
      "type": "function"
    },
    {
      "inputs": [
        {
          "internalType": "uint256",
          "name": "",
          "type": "uint256"
        }
      ],
      "name": "milestones_organizer",
      "outputs": [
        {
          "internalType": "address payable",
          "name": "",
          "type": "address"
        }
      ],
      "stateMutability": "view",
      "type": "function"
    },
    {
      "inputs": [
        {
          "internalType": "uint256",
          "name": "",
          "type": "uint256"
        }
      ],
      "name": "milestones_reward",
      "outputs": [
        {
          "internalType": "uint256",
          "name": "",
          "type": "uint256"
        }
      ],
      "stateMutability": "view",
      "type": "function"
    },
    {
      "inputs": [],
      "name": "next_milestone_index",
      "outputs": [
        {
          "internalType": "uint256",
          "name": "",
          "type": "uint256"
        }
      ],
      "stateMutability": "view",
      "type": "function"
    },
    {
      "inputs": [
        {
          "internalType": "uint256",
          "name": "milestone_position",
          "type": "uint256"
        },
        {
          "internalType": "address payable",
          "name": "organizer",
          "type": "address"
        }
      ],
      "name": "set_milestone",
      "outputs": [
        {
          "internalType": "uint256",
          "name": "_next_milestone_position",
          "type": "uint256"
        }
      ],
      "stateMutability": "payable",
      "type": "function"
    },
    {
      "inputs": [],
      "name": "withdraw",
      "outputs": [
        {
          "internalType": "uint256",
          "name": "_next_milestone_position",
          "type": "uint256"
        }
      ],
      "stateMutability": "nonpayable",
      "type": "function"
    },
    {
      "inputs": [],
      "name": "campaign_ended",
      "outputs": [],
      "stateMutability": "nonpayable",
      "type": "function"
    },
    {
      "inputs": [
        {
          "internalType": "uint256",
          "name": "index",
          "type": "uint256"
        }
      ],
      "name": "refund",
      "outputs": [],
      "stateMutability": "nonpayable",
      "type": "function"
    },
    {
      "inputs": [],
      "name": "close",
      "outputs": [],
      "stateMutability": "nonpayable",
      "type": "function"
    }
  ],
  "bytecode": "0x608060405234801561001057600080fd5b50604051610b67380380610b678339818101604052602081101561003357600080fd5b8101908080519060200190929190505050806000806101000a81548173ffffffffffffffffffffffffffffffffffffffff021916908373ffffffffffffffffffffffffffffffffffffffff160217905550600060018190555060006002819055506000600660006101000a81548160ff021916908360018111156100b357fe5b021790555050610a9f806100c86000396000f3fe60806040526004361061009c5760003560e01c806361d53e8d1161006457806361d53e8d1461019857806386060955146101ef5780638816484f14610206578063e819ef6d14610231578063e89e4ed614610293578063fdcf6fb8146102e25761009c565b8063278ecde1146100a15780633ccfd60b146100dc57806342caafba1461010757806343d726d6146101565780634cfc10811461016d575b600080fd5b3480156100ad57600080fd5b506100da600480360360208110156100c457600080fd5b810190808035906020019092919050505061035d565b005b3480156100e857600080fd5b506100f1610567565b6040518082815260200191505060405180910390f35b34801561011357600080fd5b506101406004803603602081101561012a57600080fd5b8101908080359060200190929190505050610784565b6040518082815260200191505060405180910390f35b34801561016257600080fd5b5061016b6107a5565b005b34801561017957600080fd5b506101826107fc565b6040518082815260200191505060405180910390f35b3480156101a457600080fd5b506101ad610802565b604051808273ffffffffffffffffffffffffffffffffffffffff1673ffffffffffffffffffffffffffffffffffffffff16815260200191505060405180910390f35b3480156101fb57600080fd5b50610204610827565b005b34801561021257600080fd5b5061021b6108a6565b6040518082815260200191505060405180910390f35b61027d6004803603604081101561024757600080fd5b8101908080359060200190929190803573ffffffffffffffffffffffffffffffffffffffff1690602001909291905050506108ac565b6040518082815260200191505060405180910390f35b34801561029f57600080fd5b506102cc600480360360208110156102b657600080fd5b8101908080359060200190929190505050610a0c565b6040518082815260200191505060405180910390f35b3480156102ee57600080fd5b5061031b6004803603602081101561030557600080fd5b8101908080359060200190929190505050610a2d565b604051808273ffffffffffffffffffffffffffffffffffffffff1673ffffffffffffffffffffffffffffffffffffffff16815260200191505060405180910390f35b60025481101561036c57600080fd5b600380549050811061037d57600080fd5b6005818154811061038a57fe5b9060005260206000200160009054906101000a900473ffffffffffffffffffffffffffffffffffffffff1673ffffffffffffffffffffffffffffffffffffffff163373ffffffffffffffffffffffffffffffffffffffff16146103ec57600080fd5b6000600482815481106103fb57fe5b90600052602060002001541161041057600080fd5b60018081111561041c57fe5b600660009054906101000a900460ff16600181111561043757fe5b1461044157600080fd5b60006004828154811061045057fe5b9060005260206000200154905060006004838154811061046c57fe5b90600052602060002001819055507f288d6cb9d06c195c2e203809a97a752100ae0335205eca11169ffef5e2de8c883382604051808373ffffffffffffffffffffffffffffffffffffffff1673ffffffffffffffffffffffffffffffffffffffff1681526020018281526020019250505060405180910390a1600582815481106104f257fe5b9060005260206000200160009054906101000a900473ffffffffffffffffffffffffffffffffffffffff1673ffffffffffffffffffffffffffffffffffffffff166108fc829081150290604051600060405180830381858888f19350505050158015610562573d6000803e3d6000fd5b505050565b60008060009054906101000a900473ffffffffffffffffffffffffffffffffffffffff1673ffffffffffffffffffffffffffffffffffffffff163373ffffffffffffffffffffffffffffffffffffffff16146105c257600080fd5b600380549050600254106105d557600080fd5b60008060009054906101000a900473ffffffffffffffffffffffffffffffffffffffff1673ffffffffffffffffffffffffffffffffffffffff1631905060036002548154811061062157fe5b906000526020600020015481101561063857600080fd5b600060046002548154811061064957fe5b906000526020600020015490506000811161066357600080fd5b7f12fa09ba0f89e611c52c690ec694c843afa65e0f58ceaee0712838cc017652fb60036002548154811061069357fe5b906000526020600020015482604051808381526020018281526020019250505060405180910390a16001600254016002819055506000809054906101000a900473ffffffffffffffffffffffffffffffffffffffff1673ffffffffffffffffffffffffffffffffffffffff16634a4f9b67826040518263ffffffff1660e01b81526004016000604051808303818588803b15801561073057600080fd5b505af1158015610744573d6000803e3d6000fd5b50505050506003805490506002541061076257600092505050610781565b60036002548154811061077157fe5b9060005260206000200154925050505b90565b6004818154811061079157fe5b906000526020600020016000915090505481565b6001808111156107b157fe5b600660009054906101000a900460ff1660018111156107cc57fe5b146107d657600080fd5b600047146107e357600080fd5b3373ffffffffffffffffffffffffffffffffffffffff16ff5b60025481565b6000809054906101000a900473ffffffffffffffffffffffffffffffffffffffff1681565b6000809054906101000a900473ffffffffffffffffffffffffffffffffffffffff1673ffffffffffffffffffffffffffffffffffffffff163373ffffffffffffffffffffffffffffffffffffffff161461088057600080fd5b6001600660006101000a81548160ff0219169083600181111561089f57fe5b0217905550565b60015481565b60008083116108ba57600080fd5b82600154106108c857600080fd5b600034116108d557600080fd5b6000809054906101000a900473ffffffffffffffffffffffffffffffffffffffff1673ffffffffffffffffffffffffffffffffffffffff163373ffffffffffffffffffffffffffffffffffffffff161461092e57600080fd5b600383908060018154018082558091505060019003906000526020600020016000909190919091505560043490806001815401808255809150506001900390600052602060002001600090919091909150556005829080600181540180825580915050600190039060005260206000200160009091909190916101000a81548173ffffffffffffffffffffffffffffffffffffffff021916908373ffffffffffffffffffffffffffffffffffffffff160217905550826001819055506003600254815481106109f957fe5b9060005260206000200154905092915050565b60038181548110610a1957fe5b906000526020600020016000915090505481565b60058181548110610a3a57fe5b906000526020600020016000915054906101000a900473ffffffffffffffffffffffffffffffffffffffff168156fea2646970667358221220b47276709336fe5e3962b83c9744e0e6684c4d54bbc89e895397ddbc787377ba64736f6c634300060a0033",
  "immutableReferences": {},
  "source": "// SPDX-License-Identifier: GPL-3.0-or-later\npragma solidity >=0.6.10 <0.7.0;\n\nimport {IterableAddressMapping} from './libraries/IterableAddressMapping.sol';\nimport {SafeMath} from './libraries/SafeMath.sol';\nimport {AscendingOrderedStack} from './libraries/AscendingOrderedStack.sol';\n\n/**\n@title CrowdfundingCampaign\n@author Giovanni Bartolomeo\n@notice This contract can be used for a Crowdfunding campaign, the Organizers start the campaign\nand the collected money will be withdrawn from the beneficiaries. Each donator can donate to the contract\nto support the beneficiaries directly and transparently.\nThis contract evolve 3 states: \nSTARTED - Contract deployed and waiting for organizers donations\nENDED - Campaign expired, the beneficiaries can withdraw the money\nDONATION - Initial organizers' donations collected, contract ready to receive external donations\nIs possible to setup milestones as a global rewarding system for the campaign or flag as a puntual rewarding system for the donators.\n*/\ncontract CrowdfundingCampaign {\n    using IterableAddressMapping for IterableAddressMapping.itmap;\n    using AscendingOrderedStack for AscendingOrderedStack.ordered_stack;\n\n    ///Campaign state\n    enum State {STARTED, ENDED, DONATION}\n\n    ///events\n    event started(); //contract started\n    event ended(); //contract ended\n    event donation(); //contract ready to receive donations\n    event donated(address _from, uint _amount, string _type); //donation alert\n    event withdrawn(address _from, uint _amount); //money withdrawn from the beneficiary\n    event flag_set(address _from, uint value, uint amount); //new flag set up \n\n    ///constants\n    uint public constant MINIMUM_CAMPAIGN_DURATION  = 60 * 60 * 1; //1 hour\n    uint public constant MINIMUM_DONATION           = 50000000000000000; // 0.05 ether\n    uint public constant WITHDRAW_AWAITING_TIME     = 60*5; //5 minutes\n    uint public constant TIME_REWARD_MILESTONE      = 60* 60 * 1; //1 hour\n    uint public constant MAX_BENEFICIARIES          = 100;\n    uint public constant MAX_ORGANIZERS             = 100;\n    uint public constant MINIMUM_REWARD             = 10000000000000000; // 0.01 ether\n    uint public constant MAX_FLAG_NUMBER            = 100; \n    uint private constant UINT256_MAX               = ~uint256(0);\n\n    ///actors addresses data structures\n    IterableAddressMapping.itmap public organizers;\n    IterableAddressMapping.itmap public beneficiaries;\n    mapping(address => Donation[]) public donators;\n    struct Donation {address payable destination; uint amount;}\n\n    ///campaign related vars\n    uint public campaignCloses;\n    State public state;\n    uint public organizers_unique_donations;\n    uint public beneficiaries_withdraw;\n    address public milestone_contract;\n    uint public next_milestone;\n    AscendingOrderedStack.ordered_stack public donator_rewards;\n    uint public total_donators_rewards;\n    uint public flag_number;\n\n    modifier is_authorized(IterableAddressMapping.itmap storage authorized_list ) \n    {\n        require(IterableAddressMapping.contains(authorized_list,msg.sender));\n        _;\n    }\n\n    /// @notice Constructor. Stores the addresses of organizers and beneficiaries\n    /// @param _organizers The organizers of the Crowdfunding, who open the campaign\n    /// @param _beneficiaries The receivers of the funds collected during the campaign\n    /// @param duration The address of the penalty function contract\n    constructor (\n        address payable [] memory _organizers, \n        address payable [] memory _beneficiaries,\n        uint duration\n    ) public \n    {\n        require(_organizers.length >= 1);\n        require(_organizers.length <= MAX_ORGANIZERS);\n        require(_beneficiaries.length >= 1);\n        require(_beneficiaries.length <= MAX_BENEFICIARIES);\n        require(duration >= MINIMUM_CAMPAIGN_DURATION);\n\n        IterableAddressMapping.from_array(organizers,_organizers,0);\n        IterableAddressMapping.from_array(beneficiaries,_beneficiaries,0);\n\n        campaignCloses = now + duration;\n        organizers_unique_donations = 0;\n        milestone_contract = address(new CrowdfundingCampaignMilestoneSystem(address(this)));\n        AscendingOrderedStack.init_stack(donator_rewards);\n\n        state = State.STARTED;\n        emit started();\n    }\n\n    /// @notice this function can be used to donate ethers to the beneficiaries giving to anyone the same amount\n    function fair_donation() public payable\n    {\n        require(state == State.DONATION);\n        require(msg.value >= MINIMUM_DONATION);\n        require(campaignCloses > now);\n        split_amount_beneficiaries(msg.sender,msg.value);\n\n        emit donated(msg.sender,msg.value,\"FAIR\");\n\n        withdraw_milestone();\n        check_reward(msg.sender,msg.value);\n    }\n\n    /// @notice this function can be used to donate ethers to the beneficiaries specifying the amount for each one\n    /// @param _amount  is the array containing the amount for each donation. \n    ///                 the amount in position 0 will be donated to the beneficiary in position 0 in the beneficiaries list. \n    ///                 The size of this array must be equal to the size of the beneficiaries.\n    ///                 The sum of all amount must be equal to the amount payed to this transaction.\n    function unfair_donation(uint [] memory _amount) public payable\n    {\n        require(state == State.DONATION);\n        require(msg.value >= MINIMUM_DONATION);\n        require(_amount.length == beneficiaries.size);\n        require(sum_members(_amount) == msg.value);\n        require(campaignCloses > now);\n\n        //add donated amount in the balance of each beneficiaries\n        for (uint i = IterableAddressMapping.iterate_start(beneficiaries); IterableAddressMapping.iterate_valid(beneficiaries, i); i = IterableAddressMapping.iterate_next(beneficiaries, i))\n        {\n            (address payable key,uint value) = IterableAddressMapping.iterate_get(beneficiaries, i);\n            beneficiaries.data[key].value = SafeMath.add(value,_amount[i]);\n            //logging the donation\n            donators[msg.sender].push(Donation(key,_amount[i]));\n        }\n\n        emit donated(msg.sender,msg.value,\"UNFAIR\");\n\n        withdraw_milestone();\n        check_reward(msg.sender,msg.value);\n    }\n\n    /// @notice Initial donation from all the organizers, when all the organizers donated, the contract state is updated to DONATION\n    function organizers_donation() public is_authorized(organizers) payable \n    {\n\n        require(msg.value >= MINIMUM_DONATION, \"Invalid minimum donation amount\");\n        require(state == State.STARTED);\n        require(campaignCloses > now);\n\n        IterableAddressMapping.IndexValue memory organizer = organizers.data[msg.sender];\n        uint donated_till_now = organizer.value;\n\n        if(donated_till_now == 0)\n        {\n            /// if it's the first time he's donating increase the counter\n            organizers_unique_donations++;\n\n            /// if every organizer donated then change the contract's state\n            if( organizers_unique_donations == organizers.size )\n            {\n                state = State.DONATION;\n                emit donation();\n            }\n        }\n\n        split_amount_beneficiaries(msg.sender,msg.value);\n        organizer.value = SafeMath.add(msg.value,organizer.value);\n        organizers.data[msg.sender] = organizer;\n\n        withdraw_milestone();\n\n        emit donated(msg.sender,msg.value,\"INITIAL\");\n    }\n\n    /// @notice it the campaign timer is over from more than 5 minutes, set the camapign state to to ENDED and allow the beneficiary to obtain his part of reward\n    function withdraw() public is_authorized(beneficiaries)\n    {\n        require(campaignCloses+WITHDRAW_AWAITING_TIME<=now);\n        require(beneficiaries_withdraw<beneficiaries.size);\n\n        //if this is the first beneficiary, update the campaign state \n        if(state==State.DONATION)\n        {\n            //update camapign status\n            state=State.ENDED;\n            CrowdfundingCampaignMilestoneSystem(milestone_contract).campaign_ended();\n            if(total_donators_rewards>0)\n            {\n                //sum up not collected rewards for the donators and split among the beneficiaries. \n                split_amount_beneficiaries(payable(address(this)),total_donators_rewards);\n                emit donated(address(this),total_donators_rewards,\"REWARD\");\n            } \n        }\n\n        //get beneficiary account from the list\n        IterableAddressMapping.IndexValue memory beneficiary = beneficiaries.data[msg.sender];\n        address payable addr = payable(beneficiaries.keys[beneficiary.keyIndex].key);\n        assert(addr==msg.sender);\n        assert(beneficiary.value>0);\n\n        //update beneficiary account and benecifiary counter\n        beneficiaries.data[msg.sender].value=0;\n        beneficiaries_withdraw++;\n\n        //pay the beneficiary\n        emit withdrawn(msg.sender,beneficiary.value);\n        addr.transfer(beneficiary.value);\n    }\n\n    /// @notice Set a new milestone to the milestone contract. \n    /// the amount given in input to this method is forwarded to the milestone contract and used as a reward.\n    function new_milestone(uint _milestone_position) public is_authorized(organizers) payable \n    {\n        require(msg.value>=MINIMUM_DONATION);\n        require(campaignCloses>now);\n        require(_milestone_position>address(this).balance);\n\n        //call set milestone method from the milestone cotnract and forward the amount\n        next_milestone = CrowdfundingCampaignMilestoneSystem(milestone_contract).set_milestone{value: msg.value}(_milestone_position,msg.sender);\n    }\n\n    /// @dev check if the milestone is reached and ask to the external contract\n    function withdraw_milestone() private \n    {\n        while(address(this).balance>=next_milestone && next_milestone>0)\n        {\n            next_milestone = CrowdfundingCampaignMilestoneSystem(milestone_contract).withdraw();\n            //did we reached another milestone with this single donation + milestone reward? repeat\n        }\n    }\n\n    /// @notice used by the milestone contract to pay the reward. after the reward is received the expire date of the contract is updated\n    function milestone_reward() public payable\n    {\n        require(msg.sender==milestone_contract);\n        split_amount_beneficiaries(msg.sender,msg.value);\n        campaignCloses=campaignCloses+TIME_REWARD_MILESTONE;\n\n        emit donated(msg.sender,msg.value, \"MILESTONE\");\n    }\n\n    /// @notice setup a new reward for who donate more than a certain value. who reaches the flag take the donated cash. If no one does, the beneficiaries take it.\n    function setup_reward(uint flag_value) public is_authorized(organizers) payable\n    {\n        require(msg.value>=MINIMUM_REWARD);\n        require(flag_value > 0);\n        require(flag_number<MAX_FLAG_NUMBER);\n        require(campaignCloses > now);\n\n        AscendingOrderedStack.add_elem(donator_rewards,flag_value,msg.value);\n        total_donators_rewards = SafeMath.add(total_donators_rewards,msg.value);\n        flag_number++;\n        emit flag_set(msg.sender,flag_value,msg.value);\n    }\n\n    /// @dev check if the amount donated unlock some flags, if it does, reward the good boy.\n    function check_reward(address payable donator, uint donation_amount) private \n    {     \n        uint curr_reward = 0;\n        uint curr_reward_pos = donator_rewards.head_pos;\n        AscendingOrderedStack.Elem memory curr_flag;\n\n        //slide the stack until there are rewards collectables\n        while(curr_reward_pos!=UINT256_MAX)\n        {\n            curr_flag = donator_rewards.list_memory[curr_reward_pos];\n            if(curr_flag.value<=donation_amount)\n            {\n                //some reward can be collected\n                curr_reward = SafeMath.add(curr_flag.amount,curr_reward);\n                total_donators_rewards = SafeMath.sub(total_donators_rewards,curr_flag.amount);\n                AscendingOrderedStack.pop_head(donator_rewards);\n                curr_reward_pos = donator_rewards.head_pos;\n            }else\n            {\n                break;\n            }       \n        }\n        if(curr_reward>0)\n        {\n            donator.transfer(curr_reward);\n        }\n    }\n\n    /// @notice destroy the contract and give the remaining change (due to decimal divisions errors) to the organizer that invoked the method as a reward.\n    ///         is possible to call this method only after all the beneficiaries withdrawn their funds\n    function close() public is_authorized(organizers)\n    {\n        require(state==State.ENDED);\n        require(beneficiaries_withdraw==beneficiaries.size);\n        selfdestruct(msg.sender);\n    }\n\n\n    ///@notice split an amount of eth among all the beneficiaries\n    function split_amount_beneficiaries(address payable from, uint amount) private\n    {\n        //split the donation amount\n        uint donation_amount = SafeMath.div(amount,beneficiaries.size);\n\n        //add donated amount in the balance of each beneficiaries\n        for (uint i = IterableAddressMapping.iterate_start(beneficiaries); IterableAddressMapping.iterate_valid(beneficiaries, i); i = IterableAddressMapping.iterate_next(beneficiaries, i))\n        {\n            (address payable key, uint value) = IterableAddressMapping.iterate_get(beneficiaries, i);\n            beneficiaries.data[key].value = SafeMath.add(value,donation_amount);\n            //logging the donation\n            logger(from,key,donation_amount);\n        }\n    }\n\n    ///@notice logger of the donations for the contract \n    function logger(address payable from,address payable to,uint value) private\n    {\n        donators[from].push(Donation(to,value));\n    }\n\n    ///@notice sum all the members of an uint array\n    function sum_members(uint [] memory _amount) private pure returns (uint result)\n    {\n        for ( uint i = 0; i<_amount.length; i++)\n        {\n            result+=_amount[i];\n        }\n    } \n\n    /// @notice exposes the status of the beneficiaries\n    /// @dev used also for testing purposes\n    function donation_status() public view returns (address payable [] memory addresses, uint [] memory amounts)\n    {\n        addresses = IterableAddressMapping.key_array(beneficiaries);\n        amounts = IterableAddressMapping.val_array(beneficiaries);\n    }\n\n    /// @notice exposes the list of the beneficiaries\n    /// @dev used also for testing purposes\n    function beneficiaries_list() public view returns (address payable [] memory addresses)\n    {\n        addresses = IterableAddressMapping.key_array(beneficiaries);\n    }\n\n    /// @notice exposes the list of the organizers\n    /// @dev used also for testing purposes\n    function organizers_list() public view returns (address payable [] memory addresses, uint [] memory amounts)\n    {\n        addresses = IterableAddressMapping.key_array(organizers);\n        amounts = IterableAddressMapping.val_array(organizers);\n    }\n\n    function flag_list() public view returns (uint [] memory value, uint [] memory amount)\n    {\n        return AscendingOrderedStack.to_array(donator_rewards);\n    }\n\n    /// @notice used from a donator that wants to get the log of the donated amount\n    /// @dev used also for testing purposes\n    function get_my_donations() public view returns (address payable [] memory, uint [] memory)\n    {\n        Donation[] memory donation_list = donators[msg.sender];\n        address payable [] memory addresses = new  address payable [](donation_list.length);\n        uint [] memory amounts = new uint [](donation_list.length);\n\n        for (uint i = 0; i<donation_list.length; i++)\n        {\n            addresses[i]=donation_list[i].destination;\n            amounts[i]=donation_list[i].amount;\n        }\n\n        return (addresses,amounts);\n    }\n\n    function is_ended() public view returns (bool)\n    {\n        return state==State.ENDED;\n    }\n\n}\n\n/**\n@title CrowdfundingCampaignMilestoneSystem\n@author Giovanni Bartolomeo\n@notice This contract can be used for the milestone system of a CrowdFundingCampaign. \nOnce initialized this contract await for the calls of the Crowdfundingcampaign contract in order to setup or send the reward for the milestones.\nWhen the campaign is over is possible for the organizer who setted up the milestone to obtain a refund. \n*/\ncontract CrowdfundingCampaignMilestoneSystem {\n    \n    address public campaign_contract;\n    uint public last_milestone;\n    uint public next_milestone_index;\n    uint [] public milestones;\n    uint [] public milestones_reward;\n    address payable [] public milestones_organizer;\n    State state;\n\n    ///events\n    event milestone_event(uint _amount, uint _payed);\n    event refund_event(address _organizer, uint _refund);\n\n    ///state\n    enum State {CAMPAIGN_ACTIVE, ENDED}\n\n    constructor (\n        address _campaign_contract\n    ) public \n    {\n        campaign_contract=_campaign_contract;\n        last_milestone=0;\n        next_milestone_index=0;\n        state=State.CAMPAIGN_ACTIVE;\n    }\n\n    /// @notice allow the campaign contract to setup a new milestone, the new milestone must be setted up at a bigger amount than the last one setted\n    function set_milestone(uint milestone_position, address payable organizer) public payable returns(uint _next_milestone_position)\n    {\n        require(milestone_position>0);\n        require(last_milestone<milestone_position);\n        require(msg.value>0);\n        require(msg.sender==campaign_contract);\n        \n        milestones.push(milestone_position);\n        milestones_reward.push(msg.value);\n        milestones_organizer.push(organizer);\n        last_milestone=milestone_position;\n\n        return milestones[next_milestone_index];\n    }\n\n    ///@notice allow the campaign contract to withdraw an amount of money in case a milestone is reached\n    function withdraw() public returns (uint _next_milestone_position)\n    {\n        require(msg.sender==campaign_contract);\n        require(next_milestone_index<milestones.length);\n        uint contract_balance = address(campaign_contract).balance;\n        require(contract_balance>=milestones[next_milestone_index]);\n        uint reward = milestones_reward[next_milestone_index];\n        require(reward>0);\n\n        emit milestone_event(milestones[next_milestone_index],reward);\n        next_milestone_index=next_milestone_index+1;\n\n        CrowdfundingCampaign(campaign_contract).milestone_reward{value:reward}();\n\n        if(next_milestone_index>=milestones.length)\n        {\n            return 0;\n        }else\n        {\n            return milestones[next_milestone_index];\n        }\n    }\n\n    ///@notice used by the main contract to inform the milestone contract that the campaign is expired \n    function campaign_ended() public\n    {\n        require(msg.sender==campaign_contract);\n        state=State.ENDED;\n    }\n\n    ///@notice after the campaign is ended, this method allows the organizer to get a refund of the unreached milestones \n    function refund(uint index) public\n    {\n        require(index>=next_milestone_index);\n        require(index<milestones.length);\n        require(msg.sender==milestones_organizer[index]);\n        require(milestones_reward[index]>0); //otw the refund was already emitted\n        require(state==State.ENDED);\n        \n        uint refund_amount = milestones_reward[index];\n        milestones_reward[index]=0;\n        emit refund_event(msg.sender,refund_amount);\n        milestones_organizer[index].transfer(refund_amount);\n    }\n\n    /// @notice destroy the contract \n    function close() public\n    {\n        require(state==State.ENDED);\n        require(address(this).balance==0);\n        selfdestruct(msg.sender);\n    }\n\n}",
  "sourcePath": "/Users/giovannibartolomeo/Documents/Projects/EtherCrowdfunding/contracts/CrowdfundingCampaign.sol",
  "compiler": {
    "name": "solc",
    "version": "0.6.10+commit.00c0fcaf.Emscripten.clang"
  },
  "schemaVersion": "3.2.0",
  "updatedAt": "2020-06-23T15:11:26.185Z",
  "devdoc": {
    "author": "Giovanni Bartolomeo",
    "methods": {},
    "title": "CrowdfundingCampaignMilestoneSystem"
  },
  "userdoc": {
    "methods": {
      "campaign_ended()": {
        "notice": "used by the main contract to inform the milestone contract that the campaign is expired "
      },
      "close()": {
        "notice": "destroy the contract "
      },
      "refund(uint256)": {
        "notice": "after the campaign is ended, this method allows the organizer to get a refund of the unreached milestones "
      },
      "set_milestone(uint256,address)": {
        "notice": "allow the campaign contract to setup a new milestone, the new milestone must be setted up at a bigger amount than the last one setted"
      },
      "withdraw()": {
        "notice": "allow the campaign contract to withdraw an amount of money in case a milestone is reached"
      }
    },
    "notice": "This contract can be used for the milestone system of a CrowdFundingCampaign.  Once initialized this contract await for the calls of the Crowdfundingcampaign contract in order to setup or send the reward for the milestones. When the campaign is over is possible for the organizer who setted up the milestone to obtain a refund. "
  }
}