{
  "contractName": "CrowdfundingCampaign",
  "abi": [
    {
      "inputs": [
        {
          "internalType": "address payable[]",
          "name": "_organizers",
          "type": "address[]"
        },
        {
          "internalType": "address payable[]",
          "name": "_beneficiaries",
          "type": "address[]"
        },
        {
          "internalType": "uint256",
          "name": "duration",
          "type": "uint256"
        }
      ],
      "stateMutability": "nonpayable",
      "type": "constructor"
    },
    {
      "inputs": [],
      "name": "MINIMUM_CAMPAIGN_DURATION",
      "outputs": [
        {
          "internalType": "uint256",
          "name": "",
          "type": "uint256"
        }
      ],
      "stateMutability": "view",
      "type": "function"
    },
    {
      "inputs": [],
      "name": "MINIMUM_DONATION",
      "outputs": [
        {
          "internalType": "uint256",
          "name": "",
          "type": "uint256"
        }
      ],
      "stateMutability": "view",
      "type": "function"
    },
    {
      "inputs": [],
      "name": "beneficiaries",
      "outputs": [
        {
          "internalType": "uint256",
          "name": "size",
          "type": "uint256"
        }
      ],
      "stateMutability": "view",
      "type": "function"
    },
    {
      "inputs": [],
      "name": "campaignCloses",
      "outputs": [
        {
          "internalType": "uint256",
          "name": "",
          "type": "uint256"
        }
      ],
      "stateMutability": "view",
      "type": "function"
    },
    {
      "inputs": [],
      "name": "donators",
      "outputs": [
        {
          "internalType": "uint256",
          "name": "size",
          "type": "uint256"
        }
      ],
      "stateMutability": "view",
      "type": "function"
    },
    {
      "inputs": [],
      "name": "organizers",
      "outputs": [
        {
          "internalType": "uint256",
          "name": "size",
          "type": "uint256"
        }
      ],
      "stateMutability": "view",
      "type": "function"
    },
    {
      "inputs": [],
      "name": "organizers_unique_donations",
      "outputs": [
        {
          "internalType": "uint256",
          "name": "",
          "type": "uint256"
        }
      ],
      "stateMutability": "view",
      "type": "function"
    },
    {
      "inputs": [],
      "name": "state",
      "outputs": [
        {
          "internalType": "enum CrowdfundingCampaign.State",
          "name": "",
          "type": "uint8"
        }
      ],
      "stateMutability": "view",
      "type": "function"
    },
    {
      "inputs": [],
      "name": "fair_donation",
      "outputs": [],
      "stateMutability": "payable",
      "type": "function"
    },
    {
      "inputs": [],
      "name": "donation_status",
      "outputs": [
        {
          "internalType": "address payable[]",
          "name": "addresses",
          "type": "address[]"
        },
        {
          "internalType": "uint256[]",
          "name": "amounts",
          "type": "uint256[]"
        }
      ],
      "stateMutability": "view",
      "type": "function"
    },
    {
      "inputs": [],
      "name": "organizers_donation",
      "outputs": [],
      "stateMutability": "payable",
      "type": "function"
    }
  ],
  "bytecode": "0x60806040523480156200001157600080fd5b506040516200109138038062001091833981810160405260608110156200003757600080fd5b81019080805160405193929190846401000000008211156200005857600080fd5b838201915060208201858111156200006f57600080fd5b82518660208202830111640100000000821117156200008d57600080fd5b8083526020830192505050908051906020019060200280838360005b83811015620000c6578082015181840152602081019050620000a9565b5050505090500160405260200180516040519392919084640100000000821115620000f057600080fd5b838201915060208201858111156200010757600080fd5b82518660208202830111640100000000821117156200012557600080fd5b8083526020830192505050908051906020019060200280838360005b838110156200015e57808201518184015260208101905062000141565b50505050905001604052602001805190602001909291905050506001835110156200018857600080fd5b6001825110156200019857600080fd5b610e10811015620001a857600080fd5b73__IterableAddressMapping________________6328cb93f160008560006040518463ffffffff1660e01b81526004018084815260200180602001838152602001828103825284818151815260200191508051906020019060200280838360005b83811015620002275780820151818401526020810190506200020a565b5050505090500194505050505060006040518083038186803b1580156200024d57600080fd5b505af415801562000262573d6000803e3d6000fd5b5050505073__IterableAddressMapping________________6328cb93f160038460006040518463ffffffff1660e01b81526004018084815260200180602001838152602001828103825284818151815260200191508051906020019060200280838360005b83811015620002e5578082015181840152602081019050620002c8565b5050505090500194505050505060006040518083038186803b1580156200030b57600080fd5b505af415801562000320573d6000803e3d6000fd5b505050508042016009819055506000600b819055506000600a60006101000a81548160ff021916908360028111156200035557fe5b0217905550505050610d24806200036d6000396000f3fe60806040526004361061009b5760003560e01c8063426cd7a711610064578063426cd7a7146101df578063c19d93fb1461020a578063d55bf6e214610243578063e4f811e51461026e578063e7ec29f914610299578063ef5096d5146102a35761009b565b8062c02151146100a057806309669f0b146100cb57806315ddb1261461017f5780631d29bd5a1461018957806335ac6ec6146101b4575b600080fd5b3480156100ac57600080fd5b506100b56102ce565b6040518082815260200191505060405180910390f35b3480156100d757600080fd5b506100e06102da565b604051808060200180602001838103835285818151815260200191508051906020019060200280838360005b8381101561012757808201518184015260208101905061010c565b50505050905001838103825284818151815260200191508051906020019060200280838360005b8381101561016957808201518184015260208101905061014e565b5050505090500194505050505060405180910390f35b61018761052f565b005b34801561019557600080fd5b5061019e610844565b6040518082815260200191505060405180910390f35b3480156101c057600080fd5b506101c9610850565b6040518082815260200191505060405180910390f35b3480156101eb57600080fd5b506101f461085c565b6040518082815260200191505060405180910390f35b34801561021657600080fd5b5061021f610867565b6040518082600281111561022f57fe5b60ff16815260200191505060405180910390f35b34801561024f57600080fd5b5061025861087a565b6040518082815260200191505060405180910390f35b34801561027a57600080fd5b50610283610880565b6040518082815260200191505060405180910390f35b6102a1610886565b005b3480156102af57600080fd5b506102b8610b36565b6040518082815260200191505060405180910390f35b60068060020154905081565b60608073__IterableAddressMapping________________634cd12d3f60036040518263ffffffff1660e01b81526004018082815260200191505060006040518083038186803b15801561032d57600080fd5b505af4158015610341573d6000803e3d6000fd5b505050506040513d6000823e3d601f19601f82011682018060405250602081101561036b57600080fd5b810190808051604051939291908464010000000082111561038b57600080fd5b838201915060208201858111156103a157600080fd5b82518660208202830111640100000000821117156103be57600080fd5b8083526020830192505050908051906020019060200280838360005b838110156103f55780820151818401526020810190506103da565b50505050905001604052505050915073__IterableAddressMapping________________6363f5906760036040518263ffffffff1660e01b81526004018082815260200191505060006040518083038186803b15801561045457600080fd5b505af4158015610468573d6000803e3d6000fd5b505050506040513d6000823e3d601f19601f82011682018060405250602081101561049257600080fd5b81019080805160405193929190846401000000008211156104b257600080fd5b838201915060208201858111156104c857600080fd5b82518660208202830111640100000000821117156104e557600080fd5b8083526020830192505050908051906020019060200280838360005b8381101561051c578082015181840152602081019050610501565b5050505090500160405250505090509091565b60028081111561053b57fe5b600a60009054906101000a900460ff16600281111561055657fe5b1461056057600080fd5b66b1a2bc2ec50000341161057357600080fd5b600061058434600360020154610b3c565b9050600073__IterableAddressMapping________________6368c67dae60036040518263ffffffff1660e01b81526004018082815260200191505060206040518083038186803b1580156105d857600080fd5b505af41580156105ec573d6000803e3d6000fd5b505050506040513d602081101561060257600080fd5b810190808051906020019092919050505090505b73__IterableAddressMapping________________636adf12346003836040518363ffffffff1660e01b8152600401808381526020018281526020019250505060206040518083038186803b15801561066e57600080fd5b505af4158015610682573d6000803e3d6000fd5b505050506040513d602081101561069857600080fd5b8101908080519060200190929190505050156108405760008073__IterableAddressMapping________________639c9296306003856040518363ffffffff1660e01b81526004018083815260200182815260200192505050604080518083038186803b15801561070857600080fd5b505af415801561071c573d6000803e3d6000fd5b505050506040513d604081101561073257600080fd5b8101908080519060200190929190805190602001909291905050509150915061075b8185610b86565b600360000160008473ffffffffffffffffffffffffffffffffffffffff1673ffffffffffffffffffffffffffffffffffffffff16815260200190815260200160002060010181905550505073__IterableAddressMapping________________634a5a9da86003836040518363ffffffff1660e01b8152600401808381526020018281526020019250505060206040518083038186803b1580156107fe57600080fd5b505af4158015610812573d6000803e3d6000fd5b505050506040513d602081101561082857600080fd5b81019080805190602001909291905050509050610616565b5050565b60038060020154905081565b60008060020154905081565b66b1a2bc2ec5000081565b600a60009054906101000a900460ff1681565b600b5481565b60095481565b600073__IterableAddressMapping________________63a5830a9e82336040518363ffffffff1660e01b8152600401808381526020018273ffffffffffffffffffffffffffffffffffffffff1673ffffffffffffffffffffffffffffffffffffffff1681526020019250505060206040518083038186803b15801561090b57600080fd5b505af415801561091f573d6000803e3d6000fd5b505050506040513d602081101561093557600080fd5b810190808051906020019092919050505061094f57600080fd5b66b1a2bc2ec500003410156109cc576040517f08c379a000000000000000000000000000000000000000000000000000000000815260040180806020018281038252601f8152602001807f496e76616c6964206d696e696d756d20646f6e6174696f6e20616d6f756e740081525060200191505060405180910390fd5b600060028111156109d957fe5b600a60009054906101000a900460ff1660028111156109f457fe5b146109fe57600080fd5b610a06610cd4565b6000800160003373ffffffffffffffffffffffffffffffffffffffff1673ffffffffffffffffffffffffffffffffffffffff1681526020019081526020016000206040518060400160405290816000820154815260200160018201548152505090506000816020015190506000811415610ac157600b60008154809291906001019190505550600060020154600b541415610ac0576002600a60006101000a81548160ff02191690836002811115610aba57fe5b02179055505b5b610acf348360200151610b86565b826020018181525050816000800160003373ffffffffffffffffffffffffffffffffffffffff1673ffffffffffffffffffffffffffffffffffffffff1681526020019081526020016000206000820151816000015560208201518160010155905050505050565b610e1081565b6000610b7e83836040518060400160405280601a81526020017f536166654d6174683a206469766973696f6e206279207a65726f000000000000815250610c0e565b905092915050565b600080828401905083811015610c04576040517f08c379a000000000000000000000000000000000000000000000000000000000815260040180806020018281038252601b8152602001807f536166654d6174683a206164646974696f6e206f766572666c6f77000000000081525060200191505060405180910390fd5b8091505092915050565b60008083118290610cba576040517f08c379a00000000000000000000000000000000000000000000000000000000081526004018080602001828103825283818151815260200191508051906020019080838360005b83811015610c7f578082015181840152602081019050610c64565b50505050905090810190601f168015610cac5780820380516001836020036101000a031916815260200191505b509250505060405180910390fd5b506000838581610cc657fe5b049050809150509392505050565b60405180604001604052806000815260200160008152509056fea26469706673582212208f0e5058f1ab056e2ec1ef1344c8e928dcd75260561af5c3c41b05c9c7a0008964736f6c63430006000033",
  "source": "// SPDX-License-Identifier: GPL-3.0-or-later\npragma solidity >=0.6.0 <0.7.0;\n\nimport {IterableAddressMapping} from './libraries/IterableAddressMapping.sol';\nimport {SafeMath} from './libraries/SafeMath.sol';\n\n/**\n@title CrowdfundingCampaign\n@author Giovanni Bartolomeo\n@notice This contract can be used for a Crowdfunding campaign, the Organizers start the campaign\nand the collected money will be withdrawn from the beneficiaries. Each donator can donate to the contract\nto support the beneficiaries directly and transparently.\nThis contract evolve 3 states: \nSTARTED - Contract deployed and waiting for organizers donations\nENDED - Campaign expired, the beneficiaries can withdraw the money\nDONATION - Initial organizers' donations collected, contract ready to receive external donations\n*/\ncontract CrowdfundingCampaign {\n    using IterableAddressMapping for IterableAddressMapping.itmap;\n\n    ///Campaign state\n    enum State {STARTED, ENDED, DONATION}\n\n    ///constants\n    uint public constant MINIMUM_CAMPAIGN_DURATION  = 60 * 60 * 1; //1 hours\n    uint public constant MINIMUM_DONATION           = 50000000000000000; // 0.05 ether\n    //TODO add max beneficiaries\n    //TODO add max organizers\n\n    ///actors addresses\n    IterableAddressMapping.itmap public organizers;\n    IterableAddressMapping.itmap public beneficiaries;\n    IterableAddressMapping.itmap public donators;\n\n    ///campaign related vars\n    uint public campaignCloses;\n    State public state;\n    uint public organizers_unique_donations;\n\n    modifier is_authorized(IterableAddressMapping.itmap storage authorized_list ) \n    {\n        require(IterableAddressMapping.contains(authorized_list,msg.sender));\n        _;\n    }\n\n    /// @notice Constructor. Stores the addresses of organizers and beneficiaries\n    /// @param _organizers The organizers of the Crowdfunding, who open the campaign\n    /// @param _beneficiaries The receivers of the funds collected during the campaign\n    /// @param duration The address of the penalty function contract\n    constructor (\n        address payable [] memory _organizers, \n        address payable [] memory _beneficiaries,\n        uint duration\n    ) public \n    {\n        require(_organizers.length >= 1);\n        require(_beneficiaries.length >= 1);\n        require(duration >= MINIMUM_CAMPAIGN_DURATION);\n\n        IterableAddressMapping.from_array(organizers,_organizers,0);\n        IterableAddressMapping.from_array(beneficiaries,_beneficiaries,0);\n\n        campaignCloses = now + duration;\n        organizers_unique_donations = 0;\n\n        state = State.STARTED;\n    }\n\n    /// @notice this function can be used to donate ethers to the beneficiaries giving to anyone the same amount\n    function fair_donation() public payable\n    {\n        require(state == State.DONATION);\n        require(msg.value > MINIMUM_DONATION);\n\n        //split the donation amount\n        uint donation_amount = SafeMath.div(msg.value,beneficiaries.size);\n\n        //add donated amount in the balance of each beneficiaries\n        for (uint i = IterableAddressMapping.iterate_start(beneficiaries); IterableAddressMapping.iterate_valid(beneficiaries, i); i = IterableAddressMapping.iterate_next(beneficiaries, i))\n        {\n            (address payable key, uint value) = IterableAddressMapping.iterate_get(beneficiaries, i);\n            beneficiaries.data[key].value = SafeMath.add(value,donation_amount);\n        }\n\n    } \n\n    /// @notice exposes the status of the beneficiaries\n    function donation_status() public view returns (address payable [] memory addresses, uint [] memory amounts)\n    {\n        addresses = IterableAddressMapping.key_array(beneficiaries);\n        amounts = IterableAddressMapping.val_array(beneficiaries);\n    }\n\n    /// @notice Initial donation from all the organizers, when all the organizers donated, the contract state is updated to DONATION\n    function organizers_donation() public is_authorized(organizers) payable \n    {\n\n        require(msg.value >= MINIMUM_DONATION, \"Invalid minimum donation amount\");\n        require(state == State.STARTED);\n\n        IterableAddressMapping.IndexValue memory organizer = organizers.data[msg.sender];\n        uint donated_till_now = organizer.value;\n\n        if(donated_till_now == 0)\n        {\n            /// if it's the first time he's donating increase the counter\n            organizers_unique_donations++;\n\n            /// if every organizer donated then change the contract's state\n            if( organizers_unique_donations == organizers.size )\n            {\n                state = State.DONATION;\n            }\n\n        }\n\n        organizer.value = SafeMath.add(msg.value,organizer.value);\n        organizers.data[msg.sender] = organizer;\n\n    }\n\n}",
  "sourcePath": "/Users/giovannibartolomeo/Documents/Projects/EtherCrowdfunding/contracts/CrowdfundingCampaign.sol",
  "compiler": {
    "name": "solc",
    "version": "0.6.0+commit.26b70077.Emscripten.clang"
  },
  "schemaVersion": "3.2.0",
  "updatedAt": "2020-06-13T19:02:12.993Z",
  "devdoc": {
    "author": "Giovanni Bartolomeo",
    "methods": {
      "constructor": {
        "params": {
          "_beneficiaries": "The receivers of the funds collected during the campaign",
          "_organizers": "The organizers of the Crowdfunding, who open the campaign",
          "duration": "The address of the penalty function contract"
        }
      }
    },
    "title": "CrowdfundingCampaign"
  },
  "userdoc": {
    "methods": {
      "constructor": "Constructor. Stores the addresses of organizers and beneficiaries",
      "donation_status()": {
        "notice": "exposes the status of the beneficiaries"
      },
      "fair_donation()": {
        "notice": "this function can be used to donate ethers to the beneficiaries giving to anyone the same amount"
      },
      "organizers_donation()": {
        "notice": "Initial donation from all the organizers, when all the organizers donated, the contract state is updated to DONATION"
      }
    },
    "notice": "This contract can be used for a Crowdfunding campaign, the Organizers start the campaign and the collected money will be withdrawn from the beneficiaries. Each donator can donate to the contract to support the beneficiaries directly and transparently. This contract evolve 3 states:  STARTED - Contract deployed and waiting for organizers donations ENDED - Campaign expired, the beneficiaries can withdraw the money DONATION - Initial organizers' donations collected, contract ready to receive external donations"
  }
}