{
  "contractName": "CrowdfundingCampaignMilestoneSystem",
  "abi": [
    {
      "inputs": [
        {
          "internalType": "address",
          "name": "_campaign_contract",
          "type": "address"
        }
      ],
      "stateMutability": "nonpayable",
      "type": "constructor"
    },
    {
      "anonymous": false,
      "inputs": [
        {
          "indexed": false,
          "internalType": "uint256",
          "name": "_amount",
          "type": "uint256"
        },
        {
          "indexed": false,
          "internalType": "uint256",
          "name": "_payed",
          "type": "uint256"
        }
      ],
      "name": "milestone_event",
      "type": "event"
    },
    {
      "anonymous": false,
      "inputs": [
        {
          "indexed": false,
          "internalType": "address",
          "name": "_organizer",
          "type": "address"
        },
        {
          "indexed": false,
          "internalType": "uint256",
          "name": "_refund",
          "type": "uint256"
        }
      ],
      "name": "refund_event",
      "type": "event"
    },
    {
      "inputs": [],
      "name": "campaign_contract",
      "outputs": [
        {
          "internalType": "address",
          "name": "",
          "type": "address"
        }
      ],
      "stateMutability": "view",
      "type": "function"
    },
    {
      "inputs": [],
      "name": "last_milestone",
      "outputs": [
        {
          "internalType": "uint256",
          "name": "",
          "type": "uint256"
        }
      ],
      "stateMutability": "view",
      "type": "function"
    },
    {
      "inputs": [
        {
          "internalType": "uint256",
          "name": "",
          "type": "uint256"
        }
      ],
      "name": "milestones",
      "outputs": [
        {
          "internalType": "uint256",
          "name": "",
          "type": "uint256"
        }
      ],
      "stateMutability": "view",
      "type": "function"
    },
    {
      "inputs": [
        {
          "internalType": "uint256",
          "name": "",
          "type": "uint256"
        }
      ],
      "name": "milestones_organizer",
      "outputs": [
        {
          "internalType": "address payable",
          "name": "",
          "type": "address"
        }
      ],
      "stateMutability": "view",
      "type": "function"
    },
    {
      "inputs": [
        {
          "internalType": "uint256",
          "name": "",
          "type": "uint256"
        }
      ],
      "name": "milestones_reward",
      "outputs": [
        {
          "internalType": "uint256",
          "name": "",
          "type": "uint256"
        }
      ],
      "stateMutability": "view",
      "type": "function"
    },
    {
      "inputs": [],
      "name": "next_milestone_index",
      "outputs": [
        {
          "internalType": "uint256",
          "name": "",
          "type": "uint256"
        }
      ],
      "stateMutability": "view",
      "type": "function"
    },
    {
      "inputs": [
        {
          "internalType": "uint256",
          "name": "milestone_position",
          "type": "uint256"
        },
        {
          "internalType": "address payable",
          "name": "organizer",
          "type": "address"
        }
      ],
      "name": "set_milestone",
      "outputs": [
        {
          "internalType": "uint256",
          "name": "_next_milestone_position",
          "type": "uint256"
        }
      ],
      "stateMutability": "payable",
      "type": "function"
    },
    {
      "inputs": [],
      "name": "withdraw",
      "outputs": [
        {
          "internalType": "uint256",
          "name": "_next_milestone_position",
          "type": "uint256"
        }
      ],
      "stateMutability": "nonpayable",
      "type": "function"
    },
    {
      "inputs": [
        {
          "internalType": "uint256",
          "name": "index",
          "type": "uint256"
        }
      ],
      "name": "refund",
      "outputs": [],
      "stateMutability": "nonpayable",
      "type": "function"
    }
  ],
  "bytecode": "0x608060405234801561001057600080fd5b50604051610a82380380610a828339818101604052602081101561003357600080fd5b8101908080519060200190929190505050806000806101000a81548173ffffffffffffffffffffffffffffffffffffffff021916908373ffffffffffffffffffffffffffffffffffffffff16021790555060006001819055506000600281905550506109de806100a46000396000f3fe6080604052600436106100865760003560e01c806361d53e8d1161005957806361d53e8d1461016b5780638816484f146101c2578063e819ef6d146101ed578063e89e4ed61461024f578063fdcf6fb81461029e57610086565b8063278ecde11461008b5780633ccfd60b146100c657806342caafba146100f15780634cfc108114610140575b600080fd5b34801561009757600080fd5b506100c4600480360360208110156100ae57600080fd5b8101908080359060200190929190505050610319565b005b3480156100d257600080fd5b506100db61059d565b6040518082815260200191505060405180910390f35b3480156100fd57600080fd5b5061012a6004803603602081101561011457600080fd5b8101908080359060200190929190505050610799565b6040518082815260200191505060405180910390f35b34801561014c57600080fd5b506101556107ba565b6040518082815260200191505060405180910390f35b34801561017757600080fd5b506101806107c0565b604051808273ffffffffffffffffffffffffffffffffffffffff1673ffffffffffffffffffffffffffffffffffffffff16815260200191505060405180910390f35b3480156101ce57600080fd5b506101d76107e5565b6040518082815260200191505060405180910390f35b6102396004803603604081101561020357600080fd5b8101908080359060200190929190803573ffffffffffffffffffffffffffffffffffffffff1690602001909291905050506107eb565b6040518082815260200191505060405180910390f35b34801561025b57600080fd5b506102886004803603602081101561027257600080fd5b810190808035906020019092919050505061094b565b6040518082815260200191505060405180910390f35b3480156102aa57600080fd5b506102d7600480360360208110156102c157600080fd5b810190808035906020019092919050505061096c565b604051808273ffffffffffffffffffffffffffffffffffffffff1673ffffffffffffffffffffffffffffffffffffffff16815260200191505060405180910390f35b60025481101561032857600080fd5b600380549050811061033957600080fd5b6005818154811061034657fe5b9060005260206000200160009054906101000a900473ffffffffffffffffffffffffffffffffffffffff1673ffffffffffffffffffffffffffffffffffffffff163373ffffffffffffffffffffffffffffffffffffffff16146103a857600080fd5b6000600482815481106103b757fe5b9060005260206000200154116103cc57600080fd5b6000809054906101000a900473ffffffffffffffffffffffffffffffffffffffff1673ffffffffffffffffffffffffffffffffffffffff16632452cd306040518163ffffffff1660e01b815260040160206040518083038186803b15801561043357600080fd5b505afa158015610447573d6000803e3d6000fd5b505050506040513d602081101561045d57600080fd5b810190808051906020019092919050505061047757600080fd5b60006004828154811061048657fe5b906000526020600020015490506000600483815481106104a257fe5b90600052602060002001819055507f288d6cb9d06c195c2e203809a97a752100ae0335205eca11169ffef5e2de8c883382604051808373ffffffffffffffffffffffffffffffffffffffff1673ffffffffffffffffffffffffffffffffffffffff1681526020018281526020019250505060405180910390a16005828154811061052857fe5b9060005260206000200160009054906101000a900473ffffffffffffffffffffffffffffffffffffffff1673ffffffffffffffffffffffffffffffffffffffff166108fc829081150290604051600060405180830381858888f19350505050158015610598573d6000803e3d6000fd5b505050565b60008060009054906101000a900473ffffffffffffffffffffffffffffffffffffffff1673ffffffffffffffffffffffffffffffffffffffff163373ffffffffffffffffffffffffffffffffffffffff16146105f857600080fd5b6003805490506002541061060b57600080fd5b60003373ffffffffffffffffffffffffffffffffffffffff1631905060036002548154811061063657fe5b906000526020600020015481101561064d57600080fd5b600060046002548154811061065e57fe5b906000526020600020015490506000811161067857600080fd5b7f12fa09ba0f89e611c52c690ec694c843afa65e0f58ceaee0712838cc017652fb6003600254815481106106a857fe5b906000526020600020015482604051808381526020018281526020019250505060405180910390a16001600254016002819055506000809054906101000a900473ffffffffffffffffffffffffffffffffffffffff1673ffffffffffffffffffffffffffffffffffffffff166315ddb126826040518263ffffffff1660e01b81526004016000604051808303818588803b15801561074557600080fd5b505af1158015610759573d6000803e3d6000fd5b50505050506003805490506002541061077757600092505050610796565b60036002548154811061078657fe5b9060005260206000200154925050505b90565b600481815481106107a657fe5b906000526020600020016000915090505481565b60025481565b6000809054906101000a900473ffffffffffffffffffffffffffffffffffffffff1681565b60015481565b60008083116107f957600080fd5b826001541061080757600080fd5b6000341161081457600080fd5b6000809054906101000a900473ffffffffffffffffffffffffffffffffffffffff1673ffffffffffffffffffffffffffffffffffffffff163373ffffffffffffffffffffffffffffffffffffffff161461086d57600080fd5b600383908060018154018082558091505060019003906000526020600020016000909190919091505560043490806001815401808255809150506001900390600052602060002001600090919091909150556005829080600181540180825580915050600190039060005260206000200160009091909190916101000a81548173ffffffffffffffffffffffffffffffffffffffff021916908373ffffffffffffffffffffffffffffffffffffffff1602179055508260018190555060036002548154811061093857fe5b9060005260206000200154905092915050565b6003818154811061095857fe5b906000526020600020016000915090505481565b6005818154811061097957fe5b906000526020600020016000915054906101000a900473ffffffffffffffffffffffffffffffffffffffff168156fea26469706673582212205939b6c15957cc3d5cac1a86cd83696bbeacd9a6a290b8a7d8cea2787b5fdef364736f6c634300060a0033",
  "immutableReferences": {},
  "source": "// SPDX-License-Identifier: GPL-3.0-or-later\npragma solidity >=0.6.10 <0.7.0;\n\nimport {IterableAddressMapping} from './libraries/IterableAddressMapping.sol';\nimport {SafeMath} from './libraries/SafeMath.sol';\n\n/**\n@title CrowdfundingCampaign\n@author Giovanni Bartolomeo\n@notice This contract can be used for a Crowdfunding campaign, the Organizers start the campaign\nand the collected money will be withdrawn from the beneficiaries. Each donator can donate to the contract\nto support the beneficiaries directly and transparently.\nThis contract evolve 3 states: \nSTARTED - Contract deployed and waiting for organizers donations\nENDED - Campaign expired, the beneficiaries can withdraw the money\nDONATION - Initial organizers' donations collected, contract ready to receive external donations\n*/\ncontract CrowdfundingCampaign {\n    using IterableAddressMapping for IterableAddressMapping.itmap;\n\n    ///Campaign state\n    enum State {STARTED, ENDED, DONATION}\n\n    ///events\n    event started(); //contract started\n    event ended(); //contract ended\n    event donation(); //contract ready to receive donations\n    event donated(address _from, uint _amount, string _type); //donation alert\n    event withdrawn(address _from, uint _amount); //money withdrawn from the beneficiary\n\n    ///constants\n    uint public constant MINIMUM_CAMPAIGN_DURATION  = 60 * 60 * 1; //1 hour\n    uint public constant MINIMUM_DONATION           = 50000000000000000; // 0.05 ether\n    uint public constant WITHDRAW_AWAITING_TIME     = 60*5; //5 minutes\n    uint public constant TIME_REWARD_MILESTONE      = 60* 60 * 1; //1 hour\n    //TODO add max beneficiaries\n    //TODO add max organizers\n\n    ///actors addresses data structures\n    IterableAddressMapping.itmap public organizers;\n    IterableAddressMapping.itmap public beneficiaries;\n    mapping(address => Donation[]) public donators;\n    struct Donation {address payable destination; uint amount;}\n\n    ///campaign related vars\n    uint public campaignCloses;\n    State public state;\n    uint public organizers_unique_donations;\n    uint public beneficiaries_withdraw;\n    address public milestone_contract;\n    uint public next_milestone;\n\n    modifier is_authorized(IterableAddressMapping.itmap storage authorized_list ) \n    {\n        require(IterableAddressMapping.contains(authorized_list,msg.sender));\n        _;\n    }\n\n    /// @notice Constructor. Stores the addresses of organizers and beneficiaries\n    /// @param _organizers The organizers of the Crowdfunding, who open the campaign\n    /// @param _beneficiaries The receivers of the funds collected during the campaign\n    /// @param duration The address of the penalty function contract\n    constructor (\n        address payable [] memory _organizers, \n        address payable [] memory _beneficiaries,\n        uint duration\n    ) public \n    {\n        require(_organizers.length >= 1);\n        require(_beneficiaries.length >= 1);\n        require(duration >= MINIMUM_CAMPAIGN_DURATION);\n\n        IterableAddressMapping.from_array(organizers,_organizers,0);\n        IterableAddressMapping.from_array(beneficiaries,_beneficiaries,0);\n\n        campaignCloses = now + duration;\n        organizers_unique_donations = 0;\n        milestone_contract = address(new CrowdfundingCampaignMilestoneSystem(address(this)));\n\n        state = State.STARTED;\n        emit started();\n    }\n\n    /// @notice this function can be used to donate ethers to the beneficiaries giving to anyone the same amount\n    function fair_donation() public payable\n    {\n        require(state == State.DONATION);\n        require(msg.value >= MINIMUM_DONATION);\n        require(campaignCloses > now);\n        split_amount_beneficiaries(msg.sender,msg.value);\n\n        emit donated(msg.sender,msg.value,\"FAIR\");\n    }\n\n    /// @notice this function can be used to donate ethers to the beneficiaries specifying the amount for each one\n    /// @param _amount  is the array containing the amount for each donation. \n    ///                 the amount in position 0 will be donated to the beneficiary in position 0 in the beneficiaries list. \n    ///                 The size of this array must be equal to the size of the beneficiaries.\n    ///                 The sum of all amount must be equal to the amount payed to this transaction.\n    function unfair_donation(uint [] memory _amount) public payable\n    {\n        require(state == State.DONATION);\n        require(msg.value >= MINIMUM_DONATION);\n        require(_amount.length == beneficiaries.size);\n        require(sum_members(_amount) == msg.value);\n        require(campaignCloses > now);\n\n        //add donated amount in the balance of each beneficiaries\n        for (uint i = IterableAddressMapping.iterate_start(beneficiaries); IterableAddressMapping.iterate_valid(beneficiaries, i); i = IterableAddressMapping.iterate_next(beneficiaries, i))\n        {\n            (address payable key,uint value) = IterableAddressMapping.iterate_get(beneficiaries, i);\n            beneficiaries.data[key].value = SafeMath.add(value,_amount[i]);\n            //logging the donation\n            donators[msg.sender].push(Donation(key,_amount[i]));\n        }\n\n        emit donated(msg.sender,msg.value,\"UNFAIR\");\n    }\n\n    /// @notice Initial donation from all the organizers, when all the organizers donated, the contract state is updated to DONATION\n    function organizers_donation() public is_authorized(organizers) payable \n    {\n\n        require(msg.value >= MINIMUM_DONATION, \"Invalid minimum donation amount\");\n        require(state == State.STARTED);\n        require(campaignCloses > now);\n\n        IterableAddressMapping.IndexValue memory organizer = organizers.data[msg.sender];\n        uint donated_till_now = organizer.value;\n\n        if(donated_till_now == 0)\n        {\n            /// if it's the first time he's donating increase the counter\n            organizers_unique_donations++;\n\n            /// if every organizer donated then change the contract's state\n            if( organizers_unique_donations == organizers.size )\n            {\n                state = State.DONATION;\n                emit donation();\n            }\n        }\n\n        split_amount_beneficiaries(msg.sender,msg.value);\n        organizer.value = SafeMath.add(msg.value,organizer.value);\n        organizers.data[msg.sender] = organizer;\n\n        emit donated(msg.sender,msg.value,\"INITIAL\");\n    }\n\n    /// @notice it the campaign timer is over from more than 5 minutes, set the camapign state to to ENDED and allow the beneficiary to obtain his part of reward\n    function withdraw() public is_authorized(beneficiaries)\n    {\n        require(campaignCloses+WITHDRAW_AWAITING_TIME<=now);\n        require(beneficiaries_withdraw<beneficiaries.size);\n\n        //if this is the first beneficiary, update the campaign state \n        if(state==State.DONATION)\n        {\n            state=State.ENDED;\n        }\n\n        //get beneficiary account from the list\n        IterableAddressMapping.IndexValue memory beneficiary = beneficiaries.data[msg.sender];\n        address payable addr = payable(beneficiaries.keys[beneficiary.keyIndex].key);\n        assert(addr==msg.sender);\n        assert(beneficiary.value>0);\n\n        //update beneficiary account and benecifiary counter\n        beneficiaries.data[msg.sender].value=0;\n        beneficiaries_withdraw++;\n\n        //pay the beneficiary\n        emit withdrawn(msg.sender,beneficiary.value);\n        addr.transfer(beneficiary.value);\n    }\n\n    /// @notice Set a new milestone to the milestone contract. \n    /// the amount given in input to this method is forwarded to the milestone contract and used as a reward.\n    function new_milestone(uint _milestone_position) public is_authorized(organizers) payable \n    {\n        require(msg.value>next_milestone);\n        require(campaignCloses>now);\n        require(_milestone_position>address(this).balance);\n\n        //call set milestone method from the milestone cotnract and forward the amount\n        next_milestone = CrowdfundingCampaignMilestoneSystem(milestone_contract).set_milestone{value: msg.value}(_milestone_position,msg.sender);\n    }\n\n    /// @notice destroy the contract and give the remaining change (due to decimal divisions errors) to the organizer that invoked the method as a reward.\n    ///         is possible to call this method only after all the beneficiaries withdrawn their funds\n    function close() public is_authorized(organizers){\n        require(state==State.ENDED);\n        require(beneficiaries_withdraw==beneficiaries.size);\n        selfdestruct(msg.sender);\n    }\n\n\n    ///@notice split an amount of eth among all the beneficiaries\n    function split_amount_beneficiaries(address payable from, uint amount) private\n    {\n        //split the donation amount\n        uint donation_amount = SafeMath.div(amount,beneficiaries.size);\n\n        //add donated amount in the balance of each beneficiaries\n        for (uint i = IterableAddressMapping.iterate_start(beneficiaries); IterableAddressMapping.iterate_valid(beneficiaries, i); i = IterableAddressMapping.iterate_next(beneficiaries, i))\n        {\n            (address payable key, uint value) = IterableAddressMapping.iterate_get(beneficiaries, i);\n            beneficiaries.data[key].value = SafeMath.add(value,donation_amount);\n            //logging the donation\n            logger(from,key,donation_amount);\n        }\n    }\n\n    ///@notice logger of the donations for the contract \n    function logger(address payable from,address payable to,uint value) private\n    {\n        donators[from].push(Donation(to,value));\n    }\n\n    ///@notice sum all the members of an uint array\n    function sum_members(uint [] memory _amount) private pure returns (uint result)\n    {\n        for ( uint i = 0; i<_amount.length; i++)\n        {\n            result+=_amount[i];\n        }\n    } \n\n    /// @notice exposes the status of the beneficiaries\n    /// @dev used also for testing purposes\n    function donation_status() public view returns (address payable [] memory addresses, uint [] memory amounts)\n    {\n        addresses = IterableAddressMapping.key_array(beneficiaries);\n        amounts = IterableAddressMapping.val_array(beneficiaries);\n    }\n\n    /// @notice exposes the list of the beneficiaries\n    /// @dev used also for testing purposes\n    function beneficiaries_list() public view returns (address payable [] memory addresses)\n    {\n        addresses = IterableAddressMapping.key_array(beneficiaries);\n    }\n\n    /// @notice exposes the list of the organizers\n    /// @dev used also for testing purposes\n    function organizers_list() public view returns (address payable [] memory addresses, uint [] memory amounts)\n    {\n        addresses = IterableAddressMapping.key_array(organizers);\n        amounts = IterableAddressMapping.val_array(organizers);\n    }\n\n    /// @notice used from a donator that wants to get the log of the donated amount\n    /// @dev used also for testing purposes\n    function get_my_donations() public view returns (address payable [] memory, uint [] memory)\n    {\n        Donation[] memory donation_list = donators[msg.sender];\n        address payable [] memory addresses = new  address payable [](donation_list.length);\n        uint [] memory amounts = new uint [](donation_list.length);\n\n        for (uint i = 0; i<donation_list.length; i++)\n        {\n            addresses[i]=donation_list[i].destination;\n            amounts[i]=donation_list[i].amount;\n        }\n\n        return (addresses,amounts);\n    }\n\n    function is_ended() public view returns (bool)\n    {\n        return state==State.ENDED;\n    }\n\n}\n\n/**\n@title CrowdfundingCampaignMilestoneSystem\n@author Giovanni Bartolomeo\n@notice This contract can be used for the milestone system of a CrowdFundingCampaign. \nOnce initialized this contract await for the calls of the Crowdfundingcampaign contract in order to send the reward for the milestones\n*/\ncontract CrowdfundingCampaignMilestoneSystem {\n    \n    address public campaign_contract;\n    uint public last_milestone;\n    uint public next_milestone_index;\n    uint [] public milestones;\n    uint [] public milestones_reward;\n    address payable [] public milestones_organizer;\n\n    ///events\n    event milestone_event(uint _amount, uint _payed);\n    event refund_event(address _organizer, uint _refund);\n\n    constructor (\n        address _campaign_contract\n    ) public \n    {\n        campaign_contract=_campaign_contract;\n        last_milestone=0;\n        next_milestone_index=0;\n    }\n\n    /// @notice allow the campaign contract to setup a new milestone, the new milestone must be setted up at a bigger amount than the last one setted\n    function set_milestone(uint milestone_position, address payable organizer) public payable returns(uint _next_milestone_position)\n    {\n        require(milestone_position>0);\n        require(last_milestone<milestone_position);\n        require(msg.value>0);\n        require(msg.sender==campaign_contract);\n        \n        milestones.push(milestone_position);\n        milestones_reward.push(msg.value);\n        milestones_organizer.push(organizer);\n        last_milestone=milestone_position;\n\n        return milestones[next_milestone_index];\n    }\n\n    ///@notice allow the campaign contract to withdraw an amount of money in case a milestone is reached\n    function withdraw() public returns (uint _next_milestone_position)\n    {\n        require(msg.sender==campaign_contract);\n        require(next_milestone_index<milestones.length);\n        uint contract_balance = address(msg.sender).balance;\n        require(contract_balance>=milestones[next_milestone_index]);\n        uint reward = milestones_reward[next_milestone_index];\n        require(reward>0);\n\n        emit milestone_event(milestones[next_milestone_index],reward);\n        next_milestone_index=next_milestone_index+1;\n\n        CrowdfundingCampaign(campaign_contract).fair_donation{value:reward}();\n\n        if(next_milestone_index>= milestones.length)\n        {\n            return 0;\n        }else\n        {\n            return milestones[next_milestone_index];\n        }\n    }\n\n    ///@notice after the campaign is closed, this method allows the organizer to get a refund of the unreached milestones \n    function refund(uint index) public\n    {\n        require(index>=next_milestone_index);\n        require(index<milestones.length);\n        require(msg.sender==milestones_organizer[index]);\n        require(milestones_reward[index]>0); //otw the refund was already emitted\n        require(CrowdfundingCampaign(campaign_contract).is_ended());\n        \n        uint refund_amount = milestones_reward[index];\n        milestones_reward[index]=0;\n        emit refund_event(msg.sender,refund_amount);\n        milestones_organizer[index].transfer(refund_amount);\n    }\n\n}",
  "sourcePath": "/Users/giovannibartolomeo/Documents/Projects/EtherCrowdfunding/contracts/CrowdfundingCampaign.sol",
  "compiler": {
    "name": "solc",
    "version": "0.6.10+commit.00c0fcaf.Emscripten.clang"
  },
  "schemaVersion": "3.2.0",
  "updatedAt": "2020-06-20T14:26:45.043Z",
  "devdoc": {
    "author": "Giovanni Bartolomeo",
    "methods": {},
    "title": "CrowdfundingCampaignMilestoneSystem"
  },
  "userdoc": {
    "methods": {
      "refund(uint256)": {
        "notice": "after the campaign is closed, this method allows the organizer to get a refund of the unreached milestones "
      },
      "set_milestone(uint256,address)": {
        "notice": "allow the campaign contract to setup a new milestone, the new milestone must be setted up at a bigger amount than the last one setted"
      },
      "withdraw()": {
        "notice": "allow the campaign contract to withdraw an amount of money in case a milestone is reached"
      }
    },
    "notice": "This contract can be used for the milestone system of a CrowdFundingCampaign.  Once initialized this contract await for the calls of the Crowdfundingcampaign contract in order to send the reward for the milestones"
  }
}