{
  "contractName": "CrowdfundingCampaign",
  "abi": [
    {
      "inputs": [
        {
          "internalType": "address payable[]",
          "name": "_organizers",
          "type": "address[]"
        },
        {
          "internalType": "address payable[]",
          "name": "_beneficiaries",
          "type": "address[]"
        },
        {
          "internalType": "uint256",
          "name": "duration",
          "type": "uint256"
        }
      ],
      "stateMutability": "nonpayable",
      "type": "constructor"
    },
    {
      "inputs": [],
      "name": "MINIMUM_CAMPAIGN_DURATION",
      "outputs": [
        {
          "internalType": "uint256",
          "name": "",
          "type": "uint256"
        }
      ],
      "stateMutability": "view",
      "type": "function"
    },
    {
      "inputs": [],
      "name": "MINIMUM_DONATION",
      "outputs": [
        {
          "internalType": "uint256",
          "name": "",
          "type": "uint256"
        }
      ],
      "stateMutability": "view",
      "type": "function"
    },
    {
      "inputs": [],
      "name": "campaignCloses",
      "outputs": [
        {
          "internalType": "uint256",
          "name": "",
          "type": "uint256"
        }
      ],
      "stateMutability": "view",
      "type": "function"
    },
    {
      "inputs": [],
      "name": "organizers_unique_donations",
      "outputs": [
        {
          "internalType": "uint256",
          "name": "",
          "type": "uint256"
        }
      ],
      "stateMutability": "view",
      "type": "function"
    },
    {
      "inputs": [],
      "name": "state",
      "outputs": [
        {
          "internalType": "enum CrowdfundingCampaign.State",
          "name": "",
          "type": "uint8"
        }
      ],
      "stateMutability": "view",
      "type": "function"
    },
    {
      "inputs": [],
      "name": "organizers_donation",
      "outputs": [],
      "stateMutability": "payable",
      "type": "function"
    }
  ],
  "bytecode": "0x608060405234801561001057600080fd5b506040516108563803806108568339818101604052606081101561003357600080fd5b810190808051604051939291908464010000000082111561005357600080fd5b8382019150602082018581111561006957600080fd5b825186602082028301116401000000008211171561008657600080fd5b8083526020830192505050908051906020019060200280838360005b838110156100bd5780820151818401526020810190506100a2565b50505050905001604052602001805160405193929190846401000000008211156100e657600080fd5b838201915060208201858111156100fc57600080fd5b825186602082028301116401000000008211171561011957600080fd5b8083526020830192505050908051906020019060200280838360005b83811015610150578082015181840152602081019050610135565b505050509050016040526020018051906020019092919050505060018351101561017957600080fd5b60018251101561018857600080fd5b610e1081101561019757600080fd5b73__IterableAddressMapping________________6328cb93f160008560006040518463ffffffff1660e01b81526004018084815260200180602001838152602001828103825284818151815260200191508051906020019060200280838360005b838110156102145780820151818401526020810190506101f9565b5050505090500194505050505060006040518083038186803b15801561023957600080fd5b505af415801561024d573d6000803e3d6000fd5b5050505073__IterableAddressMapping________________6328cb93f160038460006040518463ffffffff1660e01b81526004018084815260200180602001838152602001828103825284818151815260200191508051906020019060200280838360005b838110156102ce5780820151818401526020810190506102b3565b5050505090500194505050505060006040518083038186803b1580156102f357600080fd5b505af4158015610307573d6000803e3d6000fd5b505050508042016009819055506000600b819055506000600a60006101000a81548160ff0219169083600281111561033b57fe5b0217905550505050610504806103526000396000f3fe6080604052600436106100555760003560e01c8063426cd7a71461005a578063c19d93fb14610085578063d55bf6e2146100be578063e4f811e5146100e9578063e7ec29f914610114578063ef5096d51461011e575b600080fd5b34801561006657600080fd5b5061006f610149565b6040518082815260200191505060405180910390f35b34801561009157600080fd5b5061009a610154565b604051808260028111156100aa57fe5b60ff16815260200191505060405180910390f35b3480156100ca57600080fd5b506100d3610167565b6040518082815260200191505060405180910390f35b3480156100f557600080fd5b506100fe61016d565b6040518082815260200191505060405180910390f35b61011c610173565b005b34801561012a57600080fd5b50610133610426565b6040518082815260200191505060405180910390f35b66b1a2bc2ec5000081565b600a60009054906101000a900460ff1681565b600b5481565b60095481565b600073__IterableAddressMapping________________63a5830a9e82336040518363ffffffff1660e01b8152600401808381526020018273ffffffffffffffffffffffffffffffffffffffff1673ffffffffffffffffffffffffffffffffffffffff1681526020019250505060206040518083038186803b1580156101f857600080fd5b505af415801561020c573d6000803e3d6000fd5b505050506040513d602081101561022257600080fd5b810190808051906020019092919050505061023c57600080fd5b66b1a2bc2ec500003410156102b9576040517f08c379a000000000000000000000000000000000000000000000000000000000815260040180806020018281038252601f8152602001807f496e76616c6964206d696e696d756d20646f6e6174696f6e20616d6f756e740081525060200191505060405180910390fd5b600060028111156102c657fe5b600a60009054906101000a900460ff1660028111156102e157fe5b146102eb57600080fd5b6102f36104b4565b6000800160003373ffffffffffffffffffffffffffffffffffffffff1673ffffffffffffffffffffffffffffffffffffffff16815260200190815260200160002060405180604001604052908160008201548152602001600182015481525050905060008160200151905060008114156103b157600b60008154809291906001019190505550600060010180549050600b5414156103b0576002600a60006101000a81548160ff021916908360028111156103aa57fe5b02179055505b5b6103bf34836020015161042c565b826020018181525050816000800160003373ffffffffffffffffffffffffffffffffffffffff1673ffffffffffffffffffffffffffffffffffffffff1681526020019081526020016000206000820151816000015560208201518160010155905050505050565b610e1081565b6000808284019050838110156104aa576040517f08c379a000000000000000000000000000000000000000000000000000000000815260040180806020018281038252601b8152602001807f536166654d6174683a206164646974696f6e206f766572666c6f77000000000081525060200191505060405180910390fd5b8091505092915050565b60405180604001604052806000815260200160008152509056fea264697066735822122088bc341f08e90d5f22e30b86177f991093711a7ec37072469d0d9a890d901a0a64736f6c63430006000033",
  "source": "// SPDX-License-Identifier: GPL-3.0-or-later\npragma solidity >=0.6.0 <0.7.0;\n\nimport {IterableAddressMapping} from './libraries/IterableAddressMapping.sol';\nimport {SafeMath} from './libraries/SafeMath.sol';\n\n/**\n@title CrowdfundingCampaign\n@author Giovanni Bartolomeo\n@notice This contract can be used for a Crowdfunding campaign, the Organizers start the campaign\nand the collected money will be withdrawn from the beneficiaries. Each donator can donate to the contract\nto support the beneficiaries directly and transparently.\nThis contract evolve 3 states: \nSTARTED - Contract deployed and waiting for organizers donations\nENDED - Campaign expired, the beneficiaries can withdraw the money\nDONATION - Initial organizers' donations collected, contract ready to receive external donations\n*/\ncontract CrowdfundingCampaign {\n\n    ///Campaign state\n    enum State {STARTED, ENDED, DONATION}\n\n    ///constants\n    uint public constant MINIMUM_CAMPAIGN_DURATION  = 60 * 60 * 1; //1 hours\n    uint public constant MINIMUM_DONATION           = 50000000000000000; // 0.05 ether\n\n    ///actors addresses\n    IterableAddressMapping.itmap private organizers;\n    IterableAddressMapping.itmap private beneficiaries;\n    IterableAddressMapping.itmap private donators;\n\n    ///campaign related vars\n    uint public campaignCloses;\n    State public state;\n    uint public organizers_unique_donations;\n\n    modifier is_authorized(IterableAddressMapping.itmap storage authorized_list ) \n    {\n        require(IterableAddressMapping.contains(authorized_list,msg.sender));\n        _;\n    }\n\n    /// @notice Constructor. Stores the addresses of organizers and beneficiaries\n    /// @param _organizers The organizers of the Crowdfunding, who open the campaign\n    /// @param _beneficiaries The receivers of the funds collected during the campaign\n    /// @param duration The address of the penalty function contract\n    constructor (\n        address payable [] memory _organizers, \n        address payable [] memory _beneficiaries,\n        uint duration\n    ) public \n    {\n        require(_organizers.length >= 1);\n        require(_beneficiaries.length >= 1);\n        require(duration >= MINIMUM_CAMPAIGN_DURATION);\n\n        IterableAddressMapping.from_array(organizers,_organizers,0);\n        IterableAddressMapping.from_array(beneficiaries,_beneficiaries,0);\n\n        campaignCloses = now + duration;\n        organizers_unique_donations = 0;\n\n        state = State.STARTED;\n    }\n\n    /// @notice Initial donation from all the organizers, when all the organizers donated, the contract state is updated to DONATION\n    function organizers_donation() public is_authorized(organizers) payable \n    {\n\n        require(msg.value >= MINIMUM_DONATION, \"Invalid minimum donation amount\");\n        require(state == State.STARTED);\n\n        IterableAddressMapping.IndexValue memory organizer = organizers.data[msg.sender];\n        uint donated_till_now = organizer.value;\n\n        if(donated_till_now == 0)\n        {\n            /// if it's the first time he's donating increase the counter\n            organizers_unique_donations++;\n\n            /// if every organizer donated then change the contract's state\n            if( organizers_unique_donations == organizers.keys.length )\n            {\n                state = State.DONATION;\n            }\n\n        }\n\n        organizer.value = SafeMath.add(msg.value,organizer.value);\n        organizers.data[msg.sender] = organizer;\n\n    }\n\n}",
  "sourcePath": "/Users/giovannibartolomeo/Documents/Projects/EtherCrowdfunding/contracts/CrowdfundingCampaign.sol",
  "compiler": {
    "name": "solc",
    "version": "0.6.0+commit.26b70077.Emscripten.clang"
  },
  "schemaVersion": "3.2.0",
  "updatedAt": "2020-06-13T13:43:15.738Z",
  "devdoc": {
    "author": "Giovanni Bartolomeo",
    "methods": {
      "constructor": {
        "params": {
          "_beneficiaries": "The receivers of the funds collected during the campaign",
          "_organizers": "The organizers of the Crowdfunding, who open the campaign",
          "duration": "The address of the penalty function contract"
        }
      }
    },
    "title": "CrowdfundingCampaign"
  },
  "userdoc": {
    "methods": {
      "constructor": "Constructor. Stores the addresses of organizers and beneficiaries",
      "organizers_donation()": {
        "notice": "Initial donation from all the organizers, when all the organizers donated, the contract state is updated to DONATION"
      }
    },
    "notice": "This contract can be used for a Crowdfunding campaign, the Organizers start the campaign and the collected money will be withdrawn from the beneficiaries. Each donator can donate to the contract to support the beneficiaries directly and transparently. This contract evolve 3 states:  STARTED - Contract deployed and waiting for organizers donations ENDED - Campaign expired, the beneficiaries can withdraw the money DONATION - Initial organizers' donations collected, contract ready to receive external donations"
  }
}