{
  "contractName": "CrowdfundingCampaign",
  "abi": [
    {
      "inputs": [
        {
          "internalType": "address payable[]",
          "name": "_organizers",
          "type": "address[]"
        },
        {
          "internalType": "address payable[]",
          "name": "_beneficiaries",
          "type": "address[]"
        },
        {
          "internalType": "uint256",
          "name": "duration",
          "type": "uint256"
        }
      ],
      "stateMutability": "nonpayable",
      "type": "constructor"
    },
    {
      "inputs": [],
      "name": "MINIMUM_CAMPAIGN_DURATION",
      "outputs": [
        {
          "internalType": "uint256",
          "name": "",
          "type": "uint256"
        }
      ],
      "stateMutability": "view",
      "type": "function"
    },
    {
      "inputs": [],
      "name": "MINIMUM_DONATION",
      "outputs": [
        {
          "internalType": "uint256",
          "name": "",
          "type": "uint256"
        }
      ],
      "stateMutability": "view",
      "type": "function"
    },
    {
      "inputs": [],
      "name": "WITHDRAW_AWAITING_TIME",
      "outputs": [
        {
          "internalType": "uint256",
          "name": "",
          "type": "uint256"
        }
      ],
      "stateMutability": "view",
      "type": "function"
    },
    {
      "inputs": [],
      "name": "beneficiaries",
      "outputs": [
        {
          "internalType": "uint256",
          "name": "size",
          "type": "uint256"
        }
      ],
      "stateMutability": "view",
      "type": "function"
    },
    {
      "inputs": [],
      "name": "beneficiaries_withdraw",
      "outputs": [
        {
          "internalType": "uint256",
          "name": "",
          "type": "uint256"
        }
      ],
      "stateMutability": "view",
      "type": "function"
    },
    {
      "inputs": [],
      "name": "campaignCloses",
      "outputs": [
        {
          "internalType": "uint256",
          "name": "",
          "type": "uint256"
        }
      ],
      "stateMutability": "view",
      "type": "function"
    },
    {
      "inputs": [
        {
          "internalType": "address",
          "name": "",
          "type": "address"
        },
        {
          "internalType": "uint256",
          "name": "",
          "type": "uint256"
        }
      ],
      "name": "donators",
      "outputs": [
        {
          "internalType": "address payable",
          "name": "destination",
          "type": "address"
        },
        {
          "internalType": "uint256",
          "name": "amount",
          "type": "uint256"
        }
      ],
      "stateMutability": "view",
      "type": "function"
    },
    {
      "inputs": [],
      "name": "organizers",
      "outputs": [
        {
          "internalType": "uint256",
          "name": "size",
          "type": "uint256"
        }
      ],
      "stateMutability": "view",
      "type": "function"
    },
    {
      "inputs": [],
      "name": "organizers_unique_donations",
      "outputs": [
        {
          "internalType": "uint256",
          "name": "",
          "type": "uint256"
        }
      ],
      "stateMutability": "view",
      "type": "function"
    },
    {
      "inputs": [],
      "name": "state",
      "outputs": [
        {
          "internalType": "enum CrowdfundingCampaign.State",
          "name": "",
          "type": "uint8"
        }
      ],
      "stateMutability": "view",
      "type": "function"
    },
    {
      "inputs": [],
      "name": "fair_donation",
      "outputs": [],
      "stateMutability": "payable",
      "type": "function"
    },
    {
      "inputs": [
        {
          "internalType": "uint256[]",
          "name": "_amount",
          "type": "uint256[]"
        }
      ],
      "name": "unfair_donation",
      "outputs": [],
      "stateMutability": "payable",
      "type": "function"
    },
    {
      "inputs": [],
      "name": "organizers_donation",
      "outputs": [],
      "stateMutability": "payable",
      "type": "function"
    },
    {
      "inputs": [],
      "name": "withdraw",
      "outputs": [],
      "stateMutability": "nonpayable",
      "type": "function"
    },
    {
      "inputs": [],
      "name": "donation_status",
      "outputs": [
        {
          "internalType": "address payable[]",
          "name": "addresses",
          "type": "address[]"
        },
        {
          "internalType": "uint256[]",
          "name": "amounts",
          "type": "uint256[]"
        }
      ],
      "stateMutability": "view",
      "type": "function"
    },
    {
      "inputs": [],
      "name": "beneficiaries_list",
      "outputs": [
        {
          "internalType": "address payable[]",
          "name": "addresses",
          "type": "address[]"
        }
      ],
      "stateMutability": "view",
      "type": "function"
    },
    {
      "inputs": [],
      "name": "get_my_donations",
      "outputs": [
        {
          "internalType": "address payable[]",
          "name": "",
          "type": "address[]"
        },
        {
          "internalType": "uint256[]",
          "name": "",
          "type": "uint256[]"
        }
      ],
      "stateMutability": "view",
      "type": "function"
    }
  ],
  "bytecode": "0x60806040523480156200001157600080fd5b5060405162001fe338038062001fe3833981810160405260608110156200003757600080fd5b81019080805160405193929190846401000000008211156200005857600080fd5b838201915060208201858111156200006f57600080fd5b82518660208202830111640100000000821117156200008d57600080fd5b8083526020830192505050908051906020019060200280838360005b83811015620000c6578082015181840152602081019050620000a9565b5050505090500160405260200180516040519392919084640100000000821115620000f057600080fd5b838201915060208201858111156200010757600080fd5b82518660208202830111640100000000821117156200012557600080fd5b8083526020830192505050908051906020019060200280838360005b838110156200015e57808201518184015260208101905062000141565b50505050905001604052602001805190602001909291905050506001835110156200018857600080fd5b6001825110156200019857600080fd5b610e10811015620001a857600080fd5b73__IterableAddressMapping________________6328cb93f160008560006040518463ffffffff1660e01b81526004018084815260200180602001838152602001828103825284818151815260200191508051906020019060200280838360005b83811015620002275780820151818401526020810190506200020a565b5050505090500194505050505060006040518083038186803b1580156200024d57600080fd5b505af415801562000262573d6000803e3d6000fd5b5050505073__IterableAddressMapping________________6328cb93f160038460006040518463ffffffff1660e01b81526004018084815260200180602001838152602001828103825284818151815260200191508051906020019060200280838360005b83811015620002e5578082015181840152602081019050620002c8565b5050505090500194505050505060006040518083038186803b1580156200030b57600080fd5b505af415801562000320573d6000803e3d6000fd5b5050505080420160078190555060006009819055506000600860006101000a81548160ff021916908360028111156200035557fe5b0217905550505050611c76806200036d6000396000f3fe6080604052600436106100fe5760003560e01c8063a1738c1311610095578063d55bf6e211610064578063d55bf6e2146104c0578063dfff096b146104eb578063e4f811e51461058d578063e7ec29f9146105b8578063ef5096d5146105c2576100fe565b8063a1738c13146102af578063be91578f14610367578063c19d93fb146103d3578063d53e2d061461040c576100fe565b806335ac6ec6116100d157806335ac6ec6146102175780633ccfd60b14610242578063426cd7a714610259578063433abc8814610284576100fe565b806309669f0b1461010357806315ddb126146101b75780631d29bd5a146101c15780631e260dba146101ec575b600080fd5b34801561010f57600080fd5b506101186105ed565b604051808060200180602001838103835285818151815260200191508051906020019060200280838360005b8381101561015f578082015181840152602081019050610144565b50505050905001838103825284818151815260200191508051906020019060200280838360005b838110156101a1578082015181840152602081019050610186565b5050505090500194505050505060405180910390f35b6101bf610842565b005b3480156101cd57600080fd5b506101d66108a1565b6040518082815260200191505060405180910390f35b3480156101f857600080fd5b506102016108ad565b6040518082815260200191505060405180910390f35b34801561022357600080fd5b5061022c6108b3565b6040518082815260200191505060405180910390f35b34801561024e57600080fd5b506102576108bf565b005b34801561026557600080fd5b5061026e610ba0565b6040518082815260200191505060405180910390f35b34801561029057600080fd5b50610299610bab565b6040518082815260200191505060405180910390f35b610365600480360360208110156102c557600080fd5b81019080803590602001906401000000008111156102e257600080fd5b8201836020820111156102f457600080fd5b8035906020019184602083028401116401000000008311171561031657600080fd5b919080806020026020016040519081016040528093929190818152602001838360200280828437600081840152601f19601f820116905080830192505050505050509192919290505050610bb1565b005b34801561037357600080fd5b5061037c610ff4565b6040518080602001828103825283818151815260200191508051906020019060200280838360005b838110156103bf5780820151818401526020810190506103a4565b505050509050019250505060405180910390f35b3480156103df57600080fd5b506103e8611120565b604051808260028111156103f857fe5b60ff16815260200191505060405180910390f35b34801561041857600080fd5b50610421611133565b604051808060200180602001838103835285818151815260200191508051906020019060200280838360005b8381101561046857808201518184015260208101905061044d565b50505050905001838103825284818151815260200191508051906020019060200280838360005b838110156104aa57808201518184015260208101905061048f565b5050505090500194505050505060405180910390f35b3480156104cc57600080fd5b506104d5611351565b6040518082815260200191505060405180910390f35b3480156104f757600080fd5b506105446004803603604081101561050e57600080fd5b81019080803573ffffffffffffffffffffffffffffffffffffffff16906020019092919080359060200190929190505050611357565b604051808373ffffffffffffffffffffffffffffffffffffffff1673ffffffffffffffffffffffffffffffffffffffff1681526020018281526020019250505060405180910390f35b34801561059957600080fd5b506105a26113b5565b6040518082815260200191505060405180910390f35b6105c06113bb565b005b3480156105ce57600080fd5b506105d7611683565b6040518082815260200191505060405180910390f35b60608073__IterableAddressMapping________________634cd12d3f60036040518263ffffffff1660e01b81526004018082815260200191505060006040518083038186803b15801561064057600080fd5b505af4158015610654573d6000803e3d6000fd5b505050506040513d6000823e3d601f19601f82011682018060405250602081101561067e57600080fd5b810190808051604051939291908464010000000082111561069e57600080fd5b838201915060208201858111156106b457600080fd5b82518660208202830111640100000000821117156106d157600080fd5b8083526020830192505050908051906020019060200280838360005b838110156107085780820151818401526020810190506106ed565b50505050905001604052505050915073__IterableAddressMapping________________6363f5906760036040518263ffffffff1660e01b81526004018082815260200191505060006040518083038186803b15801561076757600080fd5b505af415801561077b573d6000803e3d6000fd5b505050506040513d6000823e3d601f19601f8201168201806040525060208110156107a557600080fd5b81019080805160405193929190846401000000008211156107c557600080fd5b838201915060208201858111156107db57600080fd5b82518660208202830111640100000000821117156107f857600080fd5b8083526020830192505050908051906020019060200280838360005b8381101561082f578082015181840152602081019050610814565b5050505090500160405250505090509091565b60028081111561084e57fe5b600860009054906101000a900460ff16600281111561086957fe5b1461087357600080fd5b66b1a2bc2ec5000034101561088757600080fd5b426007541161089557600080fd5b61089f3334611689565b565b60038060020154905081565b61012c81565b60008060020154905081565b600373__IterableAddressMapping________________63a5830a9e82336040518363ffffffff1660e01b8152600401808381526020018273ffffffffffffffffffffffffffffffffffffffff1673ffffffffffffffffffffffffffffffffffffffff1681526020019250505060206040518083038186803b15801561094457600080fd5b505af4158015610958573d6000803e3d6000fd5b505050506040513d602081101561096e57600080fd5b810190808051906020019092919050505061098857600080fd5b4261012c600754011061099a57600080fd5b600360020154600a54106109ad57600080fd5b6002808111156109b957fe5b600860009054906101000a900460ff1660028111156109d457fe5b14156109ff576001600860006101000a81548160ff021916908360028111156109f957fe5b02179055505b610a07611c26565b600360000160003373ffffffffffffffffffffffffffffffffffffffff1673ffffffffffffffffffffffffffffffffffffffff16815260200190815260200160002060405180604001604052908160008201548152602001600182015481525050905060006003600101826000015181548110610a8057fe5b9060005260206000200160000160009054906101000a900473ffffffffffffffffffffffffffffffffffffffff1690503373ffffffffffffffffffffffffffffffffffffffff168173ffffffffffffffffffffffffffffffffffffffff1614610ae557fe5b6000826020015111610af357fe5b6000600360000160003373ffffffffffffffffffffffffffffffffffffffff1673ffffffffffffffffffffffffffffffffffffffff16815260200190815260200160002060010181905550600a600081548092919060010191905055508073ffffffffffffffffffffffffffffffffffffffff166108fc83602001519081150290604051600060405180830381858888f19350505050158015610b9a573d6000803e3d6000fd5b50505050565b66b1a2bc2ec5000081565b600a5481565b600280811115610bbd57fe5b600860009054906101000a900460ff166002811115610bd857fe5b14610be257600080fd5b66b1a2bc2ec50000341015610bf657600080fd5b600360020154815114610c0857600080fd5b34610c1282611967565b14610c1c57600080fd5b4260075411610c2a57600080fd5b600073__IterableAddressMapping________________6368c67dae60036040518263ffffffff1660e01b81526004018082815260200191505060206040518083038186803b158015610c7c57600080fd5b505af4158015610c90573d6000803e3d6000fd5b505050506040513d6020811015610ca657600080fd5b810190808051906020019092919050505090505b73__IterableAddressMapping________________636adf12346003836040518363ffffffff1660e01b8152600401808381526020018281526020019250505060206040518083038186803b158015610d1257600080fd5b505af4158015610d26573d6000803e3d6000fd5b505050506040513d6020811015610d3c57600080fd5b810190808051906020019092919050505015610ff05760008073__IterableAddressMapping________________639c9296306003856040518363ffffffff1660e01b81526004018083815260200182815260200192505050604080518083038186803b158015610dac57600080fd5b505af4158015610dc0573d6000803e3d6000fd5b505050506040513d6040811015610dd657600080fd5b81019080805190602001909291908051906020019092919050505091509150610e1281858581518110610e0557fe5b60200260200101516119a3565b600360000160008473ffffffffffffffffffffffffffffffffffffffff1673ffffffffffffffffffffffffffffffffffffffff16815260200190815260200160002060010181905550600660003373ffffffffffffffffffffffffffffffffffffffff1673ffffffffffffffffffffffffffffffffffffffff16815260200190815260200160002060405180604001604052808473ffffffffffffffffffffffffffffffffffffffff168152602001868681518110610ecd57fe5b6020026020010151815250908060018154018082558091505060019003906000526020600020906002020160009091909190915060008201518160000160006101000a81548173ffffffffffffffffffffffffffffffffffffffff021916908373ffffffffffffffffffffffffffffffffffffffff160217905550602082015181600101555050505073__IterableAddressMapping________________634a5a9da86003836040518363ffffffff1660e01b8152600401808381526020018281526020019250505060206040518083038186803b158015610fae57600080fd5b505af4158015610fc2573d6000803e3d6000fd5b505050506040513d6020811015610fd857600080fd5b81019080805190602001909291905050509050610cba565b5050565b606073__IterableAddressMapping________________634cd12d3f60036040518263ffffffff1660e01b81526004018082815260200191505060006040518083038186803b15801561104657600080fd5b505af415801561105a573d6000803e3d6000fd5b505050506040513d6000823e3d601f19601f82011682018060405250602081101561108457600080fd5b81019080805160405193929190846401000000008211156110a457600080fd5b838201915060208201858111156110ba57600080fd5b82518660208202830111640100000000821117156110d757600080fd5b8083526020830192505050908051906020019060200280838360005b8381101561110e5780820151818401526020810190506110f3565b50505050905001604052505050905090565b600860009054906101000a900460ff1681565b6060806060600660003373ffffffffffffffffffffffffffffffffffffffff1673ffffffffffffffffffffffffffffffffffffffff168152602001908152602001600020805480602002602001604051908101604052809291908181526020016000905b8282101561122957838290600052602060002090600202016040518060400160405290816000820160009054906101000a900473ffffffffffffffffffffffffffffffffffffffff1673ffffffffffffffffffffffffffffffffffffffff1673ffffffffffffffffffffffffffffffffffffffff16815260200160018201548152505081526020019060010190611197565b505050509050606081516040519080825280602002602001820160405280156112615781602001602082028038833980820191505090505b509050606082516040519080825280602002602001820160405280156112965781602001602082028038833980820191505090505b50905060008090505b8351811015611343578381815181106112b457fe5b6020026020010151600001518382815181106112cc57fe5b602002602001019073ffffffffffffffffffffffffffffffffffffffff16908173ffffffffffffffffffffffffffffffffffffffff168152505083818151811061131257fe5b60200260200101516020015182828151811061132a57fe5b602002602001018181525050808060010191505061129f565b508181945094505050509091565b60095481565b6006602052816000526040600020818154811061137057fe5b9060005260206000209060020201600091509150508060000160009054906101000a900473ffffffffffffffffffffffffffffffffffffffff16908060010154905082565b60075481565b600073__IterableAddressMapping________________63a5830a9e82336040518363ffffffff1660e01b8152600401808381526020018273ffffffffffffffffffffffffffffffffffffffff1673ffffffffffffffffffffffffffffffffffffffff1681526020019250505060206040518083038186803b15801561144057600080fd5b505af4158015611454573d6000803e3d6000fd5b505050506040513d602081101561146a57600080fd5b810190808051906020019092919050505061148457600080fd5b66b1a2bc2ec50000341015611501576040517f08c379a000000000000000000000000000000000000000000000000000000000815260040180806020018281038252601f8152602001807f496e76616c6964206d696e696d756d20646f6e6174696f6e20616d6f756e740081525060200191505060405180910390fd5b6000600281111561150e57fe5b600860009054906101000a900460ff16600281111561152957fe5b1461153357600080fd5b426007541161154157600080fd5b611549611c26565b6000800160003373ffffffffffffffffffffffffffffffffffffffff1673ffffffffffffffffffffffffffffffffffffffff1681526020019081526020016000206040518060400160405290816000820154815260200160018201548152505090506000816020015190506000811415611604576009600081548092919060010191905055506000600201546009541415611603576002600860006101000a81548160ff021916908360028111156115fd57fe5b02179055505b5b61160e3334611689565b61161c3483602001516119a3565b826020018181525050816000800160003373ffffffffffffffffffffffffffffffffffffffff1673ffffffffffffffffffffffffffffffffffffffff1681526020019081526020016000206000820151816000015560208201518160010155905050505050565b610e1081565b600061169a82600360020154611a2b565b9050600073__IterableAddressMapping________________6368c67dae60036040518263ffffffff1660e01b81526004018082815260200191505060206040518083038186803b1580156116ee57600080fd5b505af4158015611702573d6000803e3d6000fd5b505050506040513d602081101561171857600080fd5b810190808051906020019092919050505090505b73__IterableAddressMapping________________636adf12346003836040518363ffffffff1660e01b8152600401808381526020018281526020019250505060206040518083038186803b15801561178457600080fd5b505af4158015611798573d6000803e3d6000fd5b505050506040513d60208110156117ae57600080fd5b8101908080519060200190929190505050156119615760008073__IterableAddressMapping________________639c9296306003856040518363ffffffff1660e01b81526004018083815260200182815260200192505050604080518083038186803b15801561181e57600080fd5b505af4158015611832573d6000803e3d6000fd5b505050506040513d604081101561184857600080fd5b8101908080519060200190929190805190602001909291905050509150915061187181856119a3565b600360000160008473ffffffffffffffffffffffffffffffffffffffff1673ffffffffffffffffffffffffffffffffffffffff168152602001908152602001600020600101819055506118c5868386611a75565b505073__IterableAddressMapping________________634a5a9da86003836040518363ffffffff1660e01b8152600401808381526020018281526020019250505060206040518083038186803b15801561191f57600080fd5b505af4158015611933573d6000803e3d6000fd5b505050506040513d602081101561194957600080fd5b8101908080519060200190929190505050905061172c565b50505050565b600080600090505b825181101561199d5782818151811061198457fe5b602002602001015182019150808060010191505061196f565b50919050565b600080828401905083811015611a21576040517f08c379a000000000000000000000000000000000000000000000000000000000815260040180806020018281038252601b8152602001807f536166654d6174683a206164646974696f6e206f766572666c6f77000000000081525060200191505060405180910390fd5b8091505092915050565b6000611a6d83836040518060400160405280601a81526020017f536166654d6174683a206469766973696f6e206279207a65726f000000000000815250611b60565b905092915050565b600660008473ffffffffffffffffffffffffffffffffffffffff1673ffffffffffffffffffffffffffffffffffffffff16815260200190815260200160002060405180604001604052808473ffffffffffffffffffffffffffffffffffffffff16815260200183815250908060018154018082558091505060019003906000526020600020906002020160009091909190915060008201518160000160006101000a81548173ffffffffffffffffffffffffffffffffffffffff021916908373ffffffffffffffffffffffffffffffffffffffff160217905550602082015181600101555050505050565b60008083118290611c0c576040517f08c379a00000000000000000000000000000000000000000000000000000000081526004018080602001828103825283818151815260200191508051906020019080838360005b83811015611bd1578082015181840152602081019050611bb6565b50505050905090810190601f168015611bfe5780820380516001836020036101000a031916815260200191505b509250505060405180910390fd5b506000838581611c1857fe5b049050809150509392505050565b60405180604001604052806000815260200160008152509056fea26469706673582212200980a7fe42208d8f38eff4ccadddc71551e58180aca4b2e8d0801bc4d703dcd064736f6c63430006000033",
  "source": "// SPDX-License-Identifier: GPL-3.0-or-later\npragma solidity >=0.6.0 <0.7.0;\n\nimport {IterableAddressMapping} from './libraries/IterableAddressMapping.sol';\nimport {SafeMath} from './libraries/SafeMath.sol';\n\n/**\n@title CrowdfundingCampaign\n@author Giovanni Bartolomeo\n@notice This contract can be used for a Crowdfunding campaign, the Organizers start the campaign\nand the collected money will be withdrawn from the beneficiaries. Each donator can donate to the contract\nto support the beneficiaries directly and transparently.\nThis contract evolve 3 states: \nSTARTED - Contract deployed and waiting for organizers donations\nENDED - Campaign expired, the beneficiaries can withdraw the money\nDONATION - Initial organizers' donations collected, contract ready to receive external donations\n*/\ncontract CrowdfundingCampaign {\n    using IterableAddressMapping for IterableAddressMapping.itmap;\n\n    ///Campaign state\n    enum State {STARTED, ENDED, DONATION}\n\n    ///constants\n    uint public constant MINIMUM_CAMPAIGN_DURATION  = 60 * 60 * 1; //1 hours\n    uint public constant MINIMUM_DONATION           = 50000000000000000; // 0.05 ether\n    uint public constant WITHDRAW_AWAITING_TIME     = 60*5; //5MINUTED\n    //TODO add max beneficiaries\n    //TODO add max organizers\n\n    ///actors addresses data structures\n    IterableAddressMapping.itmap public organizers;\n    IterableAddressMapping.itmap public beneficiaries;\n    mapping(address => Donation[]) public donators;\n    struct Donation {address payable destination; uint amount;}\n\n    ///campaign related vars\n    uint public campaignCloses;\n    State public state;\n    uint public organizers_unique_donations;\n    uint public beneficiaries_withdraw;\n\n    modifier is_authorized(IterableAddressMapping.itmap storage authorized_list ) \n    {\n        require(IterableAddressMapping.contains(authorized_list,msg.sender));\n        _;\n    }\n\n    /// @notice Constructor. Stores the addresses of organizers and beneficiaries\n    /// @param _organizers The organizers of the Crowdfunding, who open the campaign\n    /// @param _beneficiaries The receivers of the funds collected during the campaign\n    /// @param duration The address of the penalty function contract\n    constructor (\n        address payable [] memory _organizers, \n        address payable [] memory _beneficiaries,\n        uint duration\n    ) public \n    {\n        require(_organizers.length >= 1);\n        require(_beneficiaries.length >= 1);\n        require(duration >= MINIMUM_CAMPAIGN_DURATION);\n\n        IterableAddressMapping.from_array(organizers,_organizers,0);\n        IterableAddressMapping.from_array(beneficiaries,_beneficiaries,0);\n\n        campaignCloses = now + duration;\n        organizers_unique_donations = 0;\n\n        state = State.STARTED;\n    }\n\n    /// @notice this function can be used to donate ethers to the beneficiaries giving to anyone the same amount\n    function fair_donation() public payable\n    {\n        require(state == State.DONATION);\n        require(msg.value >= MINIMUM_DONATION);\n        require(campaignCloses > now);\n        split_amount_beneficiaries(msg.sender,msg.value);\n    }\n\n    /// @notice this function can be used to donate ethers to the beneficiaries specifying the amount for each one\n    /// @param _amount  is the array containing the amount for each donation. \n    ///                 the amount in position 0 will be donated to the beneficiary in position 0 in the beneficiaries list. \n    ///                 The size of this array must be equal to the size of the beneficiaries.\n    ///                 The sum of all amount must be equal to the amount payed to this transaction.\n    function unfair_donation(uint [] memory _amount) public payable\n    {\n        require(state == State.DONATION);\n        require(msg.value >= MINIMUM_DONATION);\n        require(_amount.length == beneficiaries.size);\n        require(sum_members(_amount) == msg.value);\n        require(campaignCloses > now);\n\n        //add donated amount in the balance of each beneficiaries\n        for (uint i = IterableAddressMapping.iterate_start(beneficiaries); IterableAddressMapping.iterate_valid(beneficiaries, i); i = IterableAddressMapping.iterate_next(beneficiaries, i))\n        {\n            (address payable key,uint value) = IterableAddressMapping.iterate_get(beneficiaries, i);\n            beneficiaries.data[key].value = SafeMath.add(value,_amount[i]);\n            //logging the donation\n            donators[msg.sender].push(Donation(key,_amount[i]));\n        }\n    }\n\n    /// @notice Initial donation from all the organizers, when all the organizers donated, the contract state is updated to DONATION\n    function organizers_donation() public is_authorized(organizers) payable \n    {\n\n        require(msg.value >= MINIMUM_DONATION, \"Invalid minimum donation amount\");\n        require(state == State.STARTED);\n        require(campaignCloses > now);\n\n        IterableAddressMapping.IndexValue memory organizer = organizers.data[msg.sender];\n        uint donated_till_now = organizer.value;\n\n        if(donated_till_now == 0)\n        {\n            /// if it's the first time he's donating increase the counter\n            organizers_unique_donations++;\n\n            /// if every organizer donated then change the contract's state\n            if( organizers_unique_donations == organizers.size )\n            {\n                state = State.DONATION;\n            }\n\n        }\n\n        split_amount_beneficiaries(msg.sender,msg.value);\n        organizer.value = SafeMath.add(msg.value,organizer.value);\n        organizers.data[msg.sender] = organizer;\n\n    }\n\n    /// @notice it the campaign timer is over from more than 5 minutes, set the camapign state to to ENDED and allow the beneficiary to obtain his part of reward\n    function withdraw() public is_authorized(beneficiaries)\n    {\n        require(campaignCloses+WITHDRAW_AWAITING_TIME<now);\n        require(beneficiaries_withdraw<beneficiaries.size);\n\n        //if this is the first beneficiary, update the campaign state \n        if(state==State.DONATION)\n        {\n            state=State.ENDED;\n        }\n\n        //get beneficiary account from the list\n        IterableAddressMapping.IndexValue memory beneficiary = beneficiaries.data[msg.sender];\n        address payable addr = payable(beneficiaries.keys[beneficiary.keyIndex].key);\n        assert(addr==msg.sender);\n        assert(beneficiary.value>0);\n\n        //update beneficiary account and benecifiary counter\n        beneficiaries.data[msg.sender].value=0;\n        beneficiaries_withdraw++;\n\n        //pay the beneficiary\n        addr.transfer(beneficiary.value);\n    }\n\n    ///@notice split an amount of eth among all the beneficiaries\n    function split_amount_beneficiaries(address payable from, uint amount) private\n    {\n        //split the donation amount\n        uint donation_amount = SafeMath.div(amount,beneficiaries.size);\n\n        //add donated amount in the balance of each beneficiaries\n        for (uint i = IterableAddressMapping.iterate_start(beneficiaries); IterableAddressMapping.iterate_valid(beneficiaries, i); i = IterableAddressMapping.iterate_next(beneficiaries, i))\n        {\n            (address payable key, uint value) = IterableAddressMapping.iterate_get(beneficiaries, i);\n            beneficiaries.data[key].value = SafeMath.add(value,donation_amount);\n            //logging the donation\n            logger(from,key,donation_amount);\n        }\n    }\n\n    ///@notice logger of the donations for the contract \n    function logger(address payable from,address payable to,uint value) private\n    {\n        donators[from].push(Donation(to,value));\n    }\n\n    ///@notice sum all the members of an uint array\n    function sum_members(uint [] memory _amount) private pure returns (uint result)\n    {\n        for ( uint i = 0; i<_amount.length; i++)\n        {\n            result+=_amount[i];\n        }\n    } \n\n    /// @notice exposes the status of the beneficiaries\n    /// @dev used also for testing purposes\n    function donation_status() public view returns (address payable [] memory addresses, uint [] memory amounts)\n    {\n        addresses = IterableAddressMapping.key_array(beneficiaries);\n        amounts = IterableAddressMapping.val_array(beneficiaries);\n    }\n\n    /// @notice exposes the list of the beneficiaries\n    /// @dev used also for testing purposes\n    function beneficiaries_list() public view returns (address payable [] memory addresses)\n    {\n        addresses = IterableAddressMapping.key_array(beneficiaries);\n    }\n\n    /// @notice used from a donator that wants to get the log of the donated amount\n    /// @dev used also for testing purposes\n    function get_my_donations() public view returns (address payable [] memory, uint [] memory)\n    {\n        Donation[] memory donation_list = donators[msg.sender];\n        address payable [] memory addresses = new  address payable [](donation_list.length);\n        uint [] memory amounts = new uint [](donation_list.length);\n\n        for (uint i = 0; i<donation_list.length; i++)\n        {\n            addresses[i]=donation_list[i].destination;\n            amounts[i]=donation_list[i].amount;\n        }\n\n        return (addresses,amounts);\n    }\n\n\n}",
  "sourcePath": "/Users/giovannibartolomeo/Documents/Projects/EtherCrowdfunding/contracts/CrowdfundingCampaign.sol",
  "compiler": {
    "name": "solc",
    "version": "0.6.0+commit.26b70077.Emscripten.clang"
  },
  "schemaVersion": "3.2.0",
  "updatedAt": "2020-06-15T11:19:13.560Z",
  "devdoc": {
    "author": "Giovanni Bartolomeo",
    "methods": {
      "beneficiaries_list()": {
        "details": "used also for testing purposes"
      },
      "constructor": {
        "params": {
          "_beneficiaries": "The receivers of the funds collected during the campaign",
          "_organizers": "The organizers of the Crowdfunding, who open the campaign",
          "duration": "The address of the penalty function contract"
        }
      },
      "donation_status()": {
        "details": "used also for testing purposes"
      },
      "get_my_donations()": {
        "details": "used also for testing purposes"
      },
      "unfair_donation(uint256[])": {
        "params": {
          "_amount": "is the array containing the amount for each donation.                  the amount in position 0 will be donated to the beneficiary in position 0 in the beneficiaries list.                  The size of this array must be equal to the size of the beneficiaries.                 The sum of all amount must be equal to the amount payed to this transaction."
        }
      }
    },
    "title": "CrowdfundingCampaign"
  },
  "userdoc": {
    "methods": {
      "beneficiaries_list()": {
        "notice": "exposes the list of the beneficiaries"
      },
      "constructor": "Constructor. Stores the addresses of organizers and beneficiaries",
      "donation_status()": {
        "notice": "exposes the status of the beneficiaries"
      },
      "fair_donation()": {
        "notice": "this function can be used to donate ethers to the beneficiaries giving to anyone the same amount"
      },
      "get_my_donations()": {
        "notice": "used from a donator that wants to get the log of the donated amount"
      },
      "organizers_donation()": {
        "notice": "Initial donation from all the organizers, when all the organizers donated, the contract state is updated to DONATION"
      },
      "unfair_donation(uint256[])": {
        "notice": "this function can be used to donate ethers to the beneficiaries specifying the amount for each one"
      },
      "withdraw()": {
        "notice": "it the campaign timer is over from more than 5 minutes, set the camapign state to to ENDED and allow the beneficiary to obtain his part of reward"
      }
    },
    "notice": "This contract can be used for a Crowdfunding campaign, the Organizers start the campaign and the collected money will be withdrawn from the beneficiaries. Each donator can donate to the contract to support the beneficiaries directly and transparently. This contract evolve 3 states:  STARTED - Contract deployed and waiting for organizers donations ENDED - Campaign expired, the beneficiaries can withdraw the money DONATION - Initial organizers' donations collected, contract ready to receive external donations"
  }
}